{
  "contractName": "RentalContract",
  "abi": [
    {
      "inputs": [
        {
          "internalType": "address",
          "name": "_owner",
          "type": "address"
        },
        {
          "internalType": "address",
          "name": "_renter",
          "type": "address"
        },
        {
          "internalType": "uint256",
          "name": "_startDate",
          "type": "uint256"
        },
        {
          "internalType": "uint256",
          "name": "_endDate",
          "type": "uint256"
        },
        {
          "internalType": "string",
          "name": "_details",
          "type": "string"
        },
        {
          "internalType": "uint256",
          "name": "_depositAmount",
          "type": "uint256"
        },
        {
          "internalType": "uint256",
          "name": "_monthlyRent",
          "type": "uint256"
        },
        {
          "internalType": "string",
          "name": "_propertyId",
          "type": "string"
        }
      ],
      "stateMutability": "nonpayable",
      "type": "constructor"
    },
    {
      "inputs": [],
      "name": "depositAmount",
      "outputs": [
        {
          "internalType": "uint256",
          "name": "",
          "type": "uint256"
        }
      ],
      "stateMutability": "view",
      "type": "function"
    },
    {
      "inputs": [],
      "name": "details",
      "outputs": [
        {
          "internalType": "string",
          "name": "",
          "type": "string"
        }
      ],
      "stateMutability": "view",
      "type": "function"
    },
    {
      "inputs": [],
      "name": "endDate",
      "outputs": [
        {
          "internalType": "uint256",
          "name": "",
          "type": "uint256"
        }
      ],
      "stateMutability": "view",
      "type": "function"
    },
    {
      "inputs": [],
      "name": "monthlyRent",
      "outputs": [
        {
          "internalType": "uint256",
          "name": "",
          "type": "uint256"
        }
      ],
      "stateMutability": "view",
      "type": "function"
    },
    {
      "inputs": [],
      "name": "owner",
      "outputs": [
        {
          "internalType": "address",
          "name": "",
          "type": "address"
        }
      ],
      "stateMutability": "view",
      "type": "function"
    },
    {
      "inputs": [],
      "name": "propertyId",
      "outputs": [
        {
          "internalType": "string",
          "name": "",
          "type": "string"
        }
      ],
      "stateMutability": "view",
      "type": "function"
    },
    {
      "inputs": [],
      "name": "renter",
      "outputs": [
        {
          "internalType": "address",
          "name": "",
          "type": "address"
        }
      ],
      "stateMutability": "view",
      "type": "function"
    },
    {
      "inputs": [],
      "name": "startDate",
      "outputs": [
        {
          "internalType": "uint256",
          "name": "",
          "type": "uint256"
        }
      ],
      "stateMutability": "view",
      "type": "function"
    },
    {
      "inputs": [],
      "name": "status",
      "outputs": [
        {
          "internalType": "enum RentalContract.Status",
          "name": "",
          "type": "uint8"
        }
      ],
      "stateMutability": "view",
      "type": "function"
    },
    {
      "inputs": [],
      "name": "terminateContract",
      "outputs": [],
      "stateMutability": "nonpayable",
      "type": "function"
    }
  ],
  "bytecode": "0x608060405234801562000010575f80fd5b5060405162000ecf38038062000ecf83398181016040528101906200003691906200034e565b875f806101000a81548173ffffffffffffffffffffffffffffffffffffffff021916908373ffffffffffffffffffffffffffffffffffffffff1602179055508660015f6101000a81548173ffffffffffffffffffffffffffffffffffffffff021916908373ffffffffffffffffffffffffffffffffffffffff16021790555085600281905550846003819055508360049081620000d491906200067e565b5082600581905550816006819055508060079081620000f491906200067e565b50600160085f6101000a81548160ff021916908360038111156200011d576200011c62000762565b5b021790555050505050505050506200078f565b5f604051905090565b5f80fd5b5f80fd5b5f73ffffffffffffffffffffffffffffffffffffffff82169050919050565b5f6200016c8262000141565b9050919050565b6200017e8162000160565b811462000189575f80fd5b50565b5f815190506200019c8162000173565b92915050565b5f819050919050565b620001b681620001a2565b8114620001c1575f80fd5b50565b5f81519050620001d481620001ab565b92915050565b5f80fd5b5f80fd5b5f601f19601f8301169050919050565b7f4e487b71000000000000000000000000000000000000000000000000000000005f52604160045260245ffd5b6200022a82620001e2565b810181811067ffffffffffffffff821117156200024c576200024b620001f2565b5b80604052505050565b5f6200026062000130565b90506200026e82826200021f565b919050565b5f67ffffffffffffffff82111562000290576200028f620001f2565b5b6200029b82620001e2565b9050602081019050919050565b5f5b83811015620002c7578082015181840152602081019050620002aa565b5f8484015250505050565b5f620002e8620002e28462000273565b62000255565b905082815260208101848484011115620003075762000306620001de565b5b62000314848285620002a8565b509392505050565b5f82601f830112620003335762000332620001da565b5b815162000345848260208601620002d2565b91505092915050565b5f805f805f805f80610100898b0312156200036e576200036d62000139565b5b5f6200037d8b828c016200018c565b9850506020620003908b828c016200018c565b9750506040620003a38b828c01620001c4565b9650506060620003b68b828c01620001c4565b955050608089015167ffffffffffffffff811115620003da57620003d96200013d565b5b620003e88b828c016200031c565b94505060a0620003fb8b828c01620001c4565b93505060c06200040e8b828c01620001c4565b92505060e089015167ffffffffffffffff8111156200043257620004316200013d565b5b620004408b828c016200031c565b9150509295985092959890939650565b5f81519050919050565b7f4e487b71000000000000000000000000000000000000000000000000000000005f52602260045260245ffd5b5f60028204905060018216806200049f57607f821691505b602082108103620004b557620004b46200045a565b5b50919050565b5f819050815f5260205f209050919050565b5f6020601f8301049050919050565b5f82821b905092915050565b5f60088302620005197fffffffffffffffffffffffffffffffffffffffffffffffffffffffffffffffff82620004dc565b620005258683620004dc565b95508019841693508086168417925050509392505050565b5f819050919050565b5f62000566620005606200055a84620001a2565b6200053d565b620001a2565b9050919050565b5f819050919050565b620005818362000546565b6200059962000590826200056d565b848454620004e8565b825550505050565b5f90565b620005af620005a1565b620005bc81848462000576565b505050565b5b81811015620005e357620005d75f82620005a5565b600181019050620005c2565b5050565b601f8211156200063257620005fc81620004bb565b6200060784620004cd565b8101602085101562000617578190505b6200062f6200062685620004cd565b830182620005c1565b50505b505050565b5f82821c905092915050565b5f620006545f198460080262000637565b1980831691505092915050565b5f6200066e838362000643565b9150826002028217905092915050565b620006898262000450565b67ffffffffffffffff811115620006a557620006a4620001f2565b5b620006b1825462000487565b620006be828285620005e7565b5f60209050601f831160018114620006f4575f8415620006df578287015190505b620006eb858262000661565b8655506200075a565b601f1984166200070486620004bb565b5f5b828110156200072d5784890151825560018201915060208501945060208101905062000706565b868310156200074d578489015162000749601f89168262000643565b8355505b6001600288020188555050505b505050505050565b7f4e487b71000000000000000000000000000000000000000000000000000000005f52602160045260245ffd5b610732806200079d5f395ff3fe608060405234801561000f575f80fd5b506004361061009c575f3560e01c8063565974d311610064578063565974d3146101225780638da5cb5b14610140578063c24a0f8b1461015e578063e4cbecdf1461017c578063ee7a3b8e1461019a5761009c565b80630b97bc86146100a0578063200d2ed2146100be5780632e88ab0b146100dc5780632fd949ca146100fa578063419759f514610104575b5f80fd5b6100a86101b8565b6040516100b5919061046a565b60405180910390f35b6100c66101be565b6040516100d391906104f6565b60405180910390f35b6100e46101d0565b6040516100f1919061054e565b60405180910390f35b6101026101f5565b005b61010c610305565b604051610119919061046a565b60405180910390f35b61012a61030b565b60405161013791906105f1565b60405180910390f35b610148610397565b604051610155919061054e565b60405180910390f35b6101666103ba565b604051610173919061046a565b60405180910390f35b6101846103c0565b604051610191919061046a565b60405180910390f35b6101a26103c6565b6040516101af91906105f1565b60405180910390f35b60025481565b60085f9054906101000a900460ff1681565b60015f9054906101000a900473ffffffffffffffffffffffffffffffffffffffff1681565b5f8054906101000a900473ffffffffffffffffffffffffffffffffffffffff1673ffffffffffffffffffffffffffffffffffffffff163373ffffffffffffffffffffffffffffffffffffffff16148061029a575060015f9054906101000a900473ffffffffffffffffffffffffffffffffffffffff1673ffffffffffffffffffffffffffffffffffffffff163373ffffffffffffffffffffffffffffffffffffffff16145b6102d9576040517f08c379a00000000000000000000000000000000000000000000000000000000081526004016102d090610681565b60405180910390fd5b600360085f6101000a81548160ff021916908360038111156102fe576102fd610483565b5b0217905550565b60055481565b60048054610318906106cc565b80601f0160208091040260200160405190810160405280929190818152602001828054610344906106cc565b801561038f5780601f106103665761010080835404028352916020019161038f565b820191905f5260205f20905b81548152906001019060200180831161037257829003601f168201915b505050505081565b5f8054906101000a900473ffffffffffffffffffffffffffffffffffffffff1681565b60035481565b60065481565b600780546103d3906106cc565b80601f01602080910402602001604051908101604052809291908181526020018280546103ff906106cc565b801561044a5780601f106104215761010080835404028352916020019161044a565b820191905f5260205f20905b81548152906001019060200180831161042d57829003601f168201915b505050505081565b5f819050919050565b61046481610452565b82525050565b5f60208201905061047d5f83018461045b565b92915050565b7f4e487b71000000000000000000000000000000000000000000000000000000005f52602160045260245ffd5b600481106104c1576104c0610483565b5b50565b5f8190506104d1826104b0565b919050565b5f6104e0826104c4565b9050919050565b6104f0816104d6565b82525050565b5f6020820190506105095f8301846104e7565b92915050565b5f73ffffffffffffffffffffffffffffffffffffffff82169050919050565b5f6105388261050f565b9050919050565b6105488161052e565b82525050565b5f6020820190506105615f83018461053f565b92915050565b5f81519050919050565b5f82825260208201905092915050565b5f5b8381101561059e578082015181840152602081019050610583565b5f8484015250505050565b5f601f19601f8301169050919050565b5f6105c382610567565b6105cd8185610571565b93506105dd818560208601610581565b6105e6816105a9565b840191505092915050565b5f6020820190508181035f83015261060981846105b9565b905092915050565b7f4f6e6c79206f776e6572206f722072656e7465722063616e207465726d696e615f8201527f74652074686520636f6e74726163740000000000000000000000000000000000602082015250565b5f61066b602f83610571565b915061067682610611565b604082019050919050565b5f6020820190508181035f8301526106988161065f565b9050919050565b7f4e487b71000000000000000000000000000000000000000000000000000000005f52602260045260245ffd5b5f60028204905060018216806106e357607f821691505b6020821081036106f6576106f561069f565b5b5091905056fea264697066735822122040be33df4c1a332c09b5af8942cdca41c9f7464ff25bb9903fa708fa2eeca68e64736f6c63430008150033",
  "immutableReferences": {},
  "source": "// contracts/RentalContract.sol\r\npragma solidity ^0.8.0;\r\n\r\ncontract RentalContract {\r\n    address public owner;\r\n    address public renter;\r\n    uint public startDate;\r\n    uint public endDate;\r\n    string public details;\r\n    uint public depositAmount;\r\n    uint public monthlyRent;\r\n    string public propertyId; // Thm thuc tnh propertyId\r\n    \r\n    // Enum  qun l trng thi hp ng\r\n    enum Status {  WAITING, ACCEPTED, REJECTED, CANCELLED }\r\n    Status public status;\r\n\r\n    constructor(\r\n        address _owner,\r\n        address _renter,\r\n        uint _startDate,\r\n        uint _endDate,\r\n        string memory _details,\r\n        uint _depositAmount,\r\n        uint _monthlyRent,\r\n        string memory _propertyId // Thm tham s cho propertyId\r\n    ) {\r\n        owner = _owner;\r\n        renter = _renter;\r\n        startDate = _startDate;\r\n        endDate = _endDate;\r\n        details = _details;\r\n        depositAmount = _depositAmount;\r\n        monthlyRent = _monthlyRent;\r\n        propertyId = _propertyId; // Khi to propertyId\r\n        status = Status.ACCEPTED;\r\n    }\r\n\r\n    function terminateContract() public {\r\n        require(msg.sender == owner || msg.sender == renter, \"Only owner or renter can terminate the contract\");\r\n        status = Status.CANCELLED;\r\n    }\r\n}\r\n",
  "sourcePath": "E:\\kltn-backend\\smart-contract\\contracts\\RentalContract.sol",
  "compiler": {
    "name": "solc",
    "version": "0.8.21+commit.d9974bed.Emscripten.clang"
  },
  "schemaVersion": "3.4.16",
  "updatedAt": "2024-07-26T08:39:08.694Z",
  "devdoc": {
    "kind": "dev",
    "methods": {},
    "version": 1
  },
  "userdoc": {
    "kind": "user",
    "methods": {},
    "version": 1
  }
}