{
  "contractName": "RentalContract",
  "abi": [
    {
      "anonymous": false,
      "inputs": [
        {
          "indexed": true,
          "internalType": "address",
          "name": "owner",
          "type": "address"
        },
        {
          "indexed": true,
          "internalType": "address",
          "name": "renter",
          "type": "address"
        },
        {
          "indexed": false,
          "internalType": "string",
          "name": "propertyId",
          "type": "string"
        },
        {
          "indexed": false,
          "internalType": "uint256",
          "name": "startDate",
          "type": "uint256"
        },
        {
          "indexed": false,
          "internalType": "uint256",
          "name": "endDate",
          "type": "uint256"
        }
      ],
      "name": "ContractCreated",
      "type": "event"
    },
    {
      "anonymous": false,
      "inputs": [
        {
          "indexed": true,
          "internalType": "address",
          "name": "owner",
          "type": "address"
        },
        {
          "indexed": true,
          "internalType": "address",
          "name": "renter",
          "type": "address"
        },
        {
          "indexed": false,
          "internalType": "string",
          "name": "propertyId",
          "type": "string"
        },
        {
          "indexed": false,
          "internalType": "uint256",
          "name": "timestamp",
          "type": "uint256"
        }
      ],
      "name": "ContractEnded",
      "type": "event"
    },
    {
      "anonymous": false,
      "inputs": [
        {
          "indexed": true,
          "internalType": "address",
          "name": "renter",
          "type": "address"
        },
        {
          "indexed": false,
          "internalType": "uint256",
          "name": "amount",
          "type": "uint256"
        },
        {
          "indexed": false,
          "internalType": "string",
          "name": "propertyId",
          "type": "string"
        },
        {
          "indexed": false,
          "internalType": "uint256",
          "name": "timestamp",
          "type": "uint256"
        }
      ],
      "name": "DepositCancelled",
      "type": "event"
    },
    {
      "anonymous": false,
      "inputs": [
        {
          "indexed": true,
          "internalType": "address",
          "name": "renter",
          "type": "address"
        },
        {
          "indexed": false,
          "internalType": "uint256",
          "name": "amount",
          "type": "uint256"
        },
        {
          "indexed": false,
          "internalType": "string",
          "name": "propertyId",
          "type": "string"
        },
        {
          "indexed": false,
          "internalType": "uint256",
          "name": "timestamp",
          "type": "uint256"
        }
      ],
      "name": "DepositMade",
      "type": "event"
    },
    {
      "anonymous": false,
      "inputs": [
        {
          "indexed": true,
          "internalType": "address",
          "name": "renter",
          "type": "address"
        },
        {
          "indexed": false,
          "internalType": "uint256",
          "name": "amount",
          "type": "uint256"
        },
        {
          "indexed": false,
          "internalType": "string",
          "name": "propertyId",
          "type": "string"
        },
        {
          "indexed": false,
          "internalType": "uint256",
          "name": "timestamp",
          "type": "uint256"
        }
      ],
      "name": "DepositReturned",
      "type": "event"
    },
    {
      "anonymous": false,
      "inputs": [
        {
          "indexed": true,
          "internalType": "address",
          "name": "renter",
          "type": "address"
        },
        {
          "indexed": false,
          "internalType": "uint256",
          "name": "amount",
          "type": "uint256"
        },
        {
          "indexed": false,
          "internalType": "uint256",
          "name": "timestamp",
          "type": "uint256"
        }
      ],
      "name": "PenaltyApplied",
      "type": "event"
    },
    {
      "anonymous": false,
      "inputs": [
        {
          "indexed": true,
          "internalType": "address",
          "name": "renter",
          "type": "address"
        },
        {
          "indexed": true,
          "internalType": "address",
          "name": "owner",
          "type": "address"
        },
        {
          "indexed": false,
          "internalType": "uint256",
          "name": "amount",
          "type": "uint256"
        },
        {
          "indexed": false,
          "internalType": "string",
          "name": "propertyId",
          "type": "string"
        },
        {
          "indexed": false,
          "internalType": "uint256",
          "name": "timestamp",
          "type": "uint256"
        }
      ],
      "name": "RentPaid",
      "type": "event"
    },
    {
      "inputs": [],
      "name": "MAX_CREATION_PERIOD",
      "outputs": [
        {
          "internalType": "uint256",
          "name": "",
          "type": "uint256"
        }
      ],
      "stateMutability": "view",
      "type": "function",
      "constant": true
    },
    {
      "inputs": [
        {
          "internalType": "uint256",
          "name": "",
          "type": "uint256"
        }
      ],
      "name": "rentals",
      "outputs": [
        {
          "internalType": "address payable",
          "name": "owner",
          "type": "address"
        },
        {
          "internalType": "address payable",
          "name": "renter",
          "type": "address"
        },
        {
          "internalType": "uint256",
          "name": "startDate",
          "type": "uint256"
        },
        {
          "internalType": "uint256",
          "name": "endDate",
          "type": "uint256"
        },
        {
          "internalType": "string",
          "name": "details",
          "type": "string"
        },
        {
          "internalType": "uint256",
          "name": "depositAmount",
          "type": "uint256"
        },
        {
          "internalType": "uint256",
          "name": "monthlyRent",
          "type": "uint256"
        },
        {
          "internalType": "string",
          "name": "propertyId",
          "type": "string"
        },
        {
          "internalType": "enum RentalContract.RentalStatus",
          "name": "status",
          "type": "uint8"
        },
        {
          "internalType": "uint256",
          "name": "lastPaymentDate",
          "type": "uint256"
        }
      ],
      "stateMutability": "view",
      "type": "function",
      "constant": true
    },
    {
      "inputs": [
        {
          "internalType": "address payable",
          "name": "_owner",
          "type": "address"
        },
        {
          "internalType": "address payable",
          "name": "_renter",
          "type": "address"
        },
        {
          "internalType": "uint256",
          "name": "_startDate",
          "type": "uint256"
        },
        {
          "internalType": "uint256",
          "name": "_endDate",
          "type": "uint256"
        },
        {
          "internalType": "string",
          "name": "_details",
          "type": "string"
        },
        {
          "internalType": "uint256",
          "name": "_monthlyRent",
          "type": "uint256"
        },
        {
          "internalType": "string",
          "name": "_propertyId",
          "type": "string"
        },
        {
          "internalType": "uint256",
          "name": "_depositAmount",
          "type": "uint256"
        }
      ],
      "name": "createContract",
      "outputs": [],
      "stateMutability": "nonpayable",
      "type": "function"
    },
    {
      "inputs": [
        {
          "internalType": "uint256",
          "name": "_rentalIndex",
          "type": "uint256"
        }
      ],
      "name": "depositAndCreateContract",
      "outputs": [],
      "stateMutability": "payable",
      "type": "function",
      "payable": true
    },
    {
      "inputs": [
        {
          "internalType": "uint256",
          "name": "_rentalIndex",
          "type": "uint256"
        }
      ],
      "name": "payRent",
      "outputs": [],
      "stateMutability": "payable",
      "type": "function",
      "payable": true
    },
    {
      "inputs": [
        {
          "internalType": "uint256",
          "name": "_rentalIndex",
          "type": "uint256"
        }
      ],
      "name": "endContract",
      "outputs": [],
      "stateMutability": "nonpayable",
      "type": "function"
    },
    {
      "inputs": [
        {
          "internalType": "uint256",
          "name": "_rentalIndex",
          "type": "uint256"
        },
        {
          "internalType": "uint256",
          "name": "_penaltyAmount",
          "type": "uint256"
        }
      ],
      "name": "applyPenalty",
      "outputs": [],
      "stateMutability": "nonpayable",
      "type": "function"
    },
    {
      "inputs": [
        {
          "internalType": "uint256",
          "name": "_rentalIndex",
          "type": "uint256"
        }
      ],
      "name": "cancelDeposit",
      "outputs": [],
      "stateMutability": "nonpayable",
      "type": "function"
    },
    {
      "inputs": [
        {
          "internalType": "uint256",
          "name": "_rentalIndex",
          "type": "uint256"
        }
      ],
      "name": "getRentalDetails",
      "outputs": [
        {
          "components": [
            {
              "internalType": "address payable",
              "name": "owner",
              "type": "address"
            },
            {
              "internalType": "address payable",
              "name": "renter",
              "type": "address"
            },
            {
              "internalType": "uint256",
              "name": "startDate",
              "type": "uint256"
            },
            {
              "internalType": "uint256",
              "name": "endDate",
              "type": "uint256"
            },
            {
              "internalType": "string",
              "name": "details",
              "type": "string"
            },
            {
              "internalType": "uint256",
              "name": "depositAmount",
              "type": "uint256"
            },
            {
              "internalType": "uint256",
              "name": "monthlyRent",
              "type": "uint256"
            },
            {
              "internalType": "string",
              "name": "propertyId",
              "type": "string"
            },
            {
              "internalType": "enum RentalContract.RentalStatus",
              "name": "status",
              "type": "uint8"
            },
            {
              "internalType": "uint256",
              "name": "lastPaymentDate",
              "type": "uint256"
            }
          ],
          "internalType": "struct RentalContract.Rental",
          "name": "",
          "type": "tuple"
        }
      ],
      "stateMutability": "view",
      "type": "function",
      "constant": true
    },
    {
      "inputs": [],
      "name": "getAllRentals",
      "outputs": [
        {
          "components": [
            {
              "internalType": "address payable",
              "name": "owner",
              "type": "address"
            },
            {
              "internalType": "address payable",
              "name": "renter",
              "type": "address"
            },
            {
              "internalType": "uint256",
              "name": "startDate",
              "type": "uint256"
            },
            {
              "internalType": "uint256",
              "name": "endDate",
              "type": "uint256"
            },
            {
              "internalType": "string",
              "name": "details",
              "type": "string"
            },
            {
              "internalType": "uint256",
              "name": "depositAmount",
              "type": "uint256"
            },
            {
              "internalType": "uint256",
              "name": "monthlyRent",
              "type": "uint256"
            },
            {
              "internalType": "string",
              "name": "propertyId",
              "type": "string"
            },
            {
              "internalType": "enum RentalContract.RentalStatus",
              "name": "status",
              "type": "uint8"
            },
            {
              "internalType": "uint256",
              "name": "lastPaymentDate",
              "type": "uint256"
            }
          ],
          "internalType": "struct RentalContract.Rental[]",
          "name": "",
          "type": "tuple[]"
        }
      ],
      "stateMutability": "view",
      "type": "function",
      "constant": true
    }
  ],
  "bytecode": "0x608060405234801561001057600080fd5b506136a7806100206000396000f3fe6080604052600436106100915760003560e01c8063af94a1d111610059578063af94a1d11461016c578063c85a6b3d146101b2578063d0f08872146101db578063d9e8843f14610204578063f8e8a1421461022057610091565b806317088b34146100965780632ce2ff7c146100d35780636ac2551d146100fc57806372fada5c14610127578063a1c8a5ce14610150575b600080fd5b3480156100a257600080fd5b506100bd60048036038101906100b891906125a9565b61024b565b6040516100ca91906132b7565b60405180910390f35b3480156100df57600080fd5b506100fa60048036038101906100f591906124c7565b610537565b005b34801561010857600080fd5b50610111610822565b60405161011e9190613025565b60405180910390f35b34801561013357600080fd5b5061014e600480360381019061014991906125a9565b610b0b565b005b61016a600480360381019061016591906125a9565b610edf565b005b34801561017857600080fd5b50610193600480360381019061018e91906125a9565b6111b9565b6040516101a99a99989796959493929190612f7b565b60405180910390f35b3480156101be57600080fd5b506101d960048036038101906101d491906125a9565b61137a565b005b3480156101e757600080fd5b5061020260048036038101906101fd91906125d2565b611873565b005b61021e600480360381019061021991906125a9565b611bcd565b005b34801561022c57600080fd5b506102356122d4565b60405161024291906132d9565b60405180910390f35b6102536122db565b6000828154811061028d577f4e487b7100000000000000000000000000000000000000000000000000000000600052603260045260246000fd5b90600052602060002090600a0201604051806101400160405290816000820160009054906101000a900473ffffffffffffffffffffffffffffffffffffffff1673ffffffffffffffffffffffffffffffffffffffff1673ffffffffffffffffffffffffffffffffffffffff1681526020016001820160009054906101000a900473ffffffffffffffffffffffffffffffffffffffff1673ffffffffffffffffffffffffffffffffffffffff1673ffffffffffffffffffffffffffffffffffffffff168152602001600282015481526020016003820154815260200160048201805461037790613530565b80601f01602080910402602001604051908101604052809291908181526020018280546103a390613530565b80156103f05780601f106103c5576101008083540402835291602001916103f0565b820191906000526020600020905b8154815290600101906020018083116103d357829003601f168201915b50505050508152602001600582015481526020016006820154815260200160078201805461041d90613530565b80601f016020809104026020016040519081016040528092919081815260200182805461044990613530565b80156104965780601f1061046b57610100808354040283529160200191610496565b820191906000526020600020905b81548152906001019060200180831161047957829003601f168201915b505050505081526020016008820160009054906101000a900460ff1660038111156104ea577f4e487b7100000000000000000000000000000000000000000000000000000000600052602160045260246000fd5b6003811115610522577f4e487b7100000000000000000000000000000000000000000000000000000000600052602160045260246000fd5b81526020016009820154815250509050919050565b848610610579576040517f08c379a000000000000000000000000000000000000000000000000000000000815260040161057090613077565b60405180910390fd5b8773ffffffffffffffffffffffffffffffffffffffff163373ffffffffffffffffffffffffffffffffffffffff16146105e7576040517f08c379a00000000000000000000000000000000000000000000000000000000081526004016105de906131b7565b60405180910390fd5b60006040518061014001604052808a73ffffffffffffffffffffffffffffffffffffffff1681526020018973ffffffffffffffffffffffffffffffffffffffff1681526020018881526020018781526020018681526020018381526020018581526020018481526020016000600381111561068b577f4e487b7100000000000000000000000000000000000000000000000000000000600052602160045260246000fd5b81526020016000815250905060008190806001815401808255809150506001900390600052602060002090600a020160009091909190915060008201518160000160006101000a81548173ffffffffffffffffffffffffffffffffffffffff021916908373ffffffffffffffffffffffffffffffffffffffff16021790555060208201518160010160006101000a81548173ffffffffffffffffffffffffffffffffffffffff021916908373ffffffffffffffffffffffffffffffffffffffff16021790555060408201518160020155606082015181600301556080820151816004019080519060200190610781929190612392565b5060a0820151816005015560c0820151816006015560e08201518160070190805190602001906107b2929190612392565b506101008201518160080160006101000a81548160ff02191690836003811115610805577f4e487b7100000000000000000000000000000000000000000000000000000000600052602160045260246000fd5b021790555061012082015181600901555050505050505050505050565b60606000805480602002602001604051908101604052809291908181526020016000905b82821015610b0257838290600052602060002090600a0201604051806101400160405290816000820160009054906101000a900473ffffffffffffffffffffffffffffffffffffffff1673ffffffffffffffffffffffffffffffffffffffff1673ffffffffffffffffffffffffffffffffffffffff1681526020016001820160009054906101000a900473ffffffffffffffffffffffffffffffffffffffff1673ffffffffffffffffffffffffffffffffffffffff1673ffffffffffffffffffffffffffffffffffffffff168152602001600282015481526020016003820154815260200160048201805461093a90613530565b80601f016020809104026020016040519081016040528092919081815260200182805461096690613530565b80156109b35780601f10610988576101008083540402835291602001916109b3565b820191906000526020600020905b81548152906001019060200180831161099657829003601f168201915b5050505050815260200160058201548152602001600682015481526020016007820180546109e090613530565b80601f0160208091040260200160405190810160405280929190818152602001828054610a0c90613530565b8015610a595780601f10610a2e57610100808354040283529160200191610a59565b820191906000526020600020905b815481529060010190602001808311610a3c57829003601f168201915b505050505081526020016008820160009054906101000a900460ff166003811115610aad577f4e487b7100000000000000000000000000000000000000000000000000000000600052602160045260246000fd5b6003811115610ae5577f4e487b7100000000000000000000000000000000000000000000000000000000600052602160045260246000fd5b815260200160098201548152505081526020019060010190610846565b50505050905090565b8060008181548110610b46577f4e487b7100000000000000000000000000000000000000000000000000000000600052603260045260246000fd5b90600052602060002090600a020160010160009054906101000a900473ffffffffffffffffffffffffffffffffffffffff1673ffffffffffffffffffffffffffffffffffffffff163373ffffffffffffffffffffffffffffffffffffffff1614610be5576040517f08c379a0000000000000000000000000000000000000000000000000000000008152600401610bdc90613117565b60405180910390fd5b6000805490508210610c2c576040517f08c379a0000000000000000000000000000000000000000000000000000000008152600401610c2390613157565b60405180910390fd5b6000808381548110610c67577f4e487b7100000000000000000000000000000000000000000000000000000000600052603260045260246000fd5b90600052602060002090600a0201905060016003811115610cb1577f4e487b7100000000000000000000000000000000000000000000000000000000600052602160045260246000fd5b8160080160009054906101000a900460ff166003811115610cfb577f4e487b7100000000000000000000000000000000000000000000000000000000600052602160045260246000fd5b14610d3b576040517f08c379a0000000000000000000000000000000000000000000000000000000008152600401610d32906131d7565b60405180910390fd5b62093a808160020154610d4e9190613437565b4211610d8f576040517f08c379a0000000000000000000000000000000000000000000000000000000008152600401610d8690613297565b60405180910390fd5b6000816005015490506000826005018190555060008260080160006101000a81548160ff02191690836003811115610df0577f4e487b7100000000000000000000000000000000000000000000000000000000600052602160045260246000fd5b02179055508160010160009054906101000a900473ffffffffffffffffffffffffffffffffffffffff1673ffffffffffffffffffffffffffffffffffffffff166108fc829081150290604051600060405180830381858888f19350505050158015610e5f573d6000803e3d6000fd5b508160010160009054906101000a900473ffffffffffffffffffffffffffffffffffffffff1673ffffffffffffffffffffffffffffffffffffffff167fbbe9a54344eb3b12acee59b455d9b15628ae26deb93dc27ed4ff151eab941d36828460070142604051610ed1939291906132f4565b60405180910390a250505050565b6000805490508110610f26576040517f08c379a0000000000000000000000000000000000000000000000000000000008152600401610f1d90613157565b60405180910390fd5b6000808281548110610f61577f4e487b7100000000000000000000000000000000000000000000000000000000600052603260045260246000fd5b90600052602060002090600a020190508060010160009054906101000a900473ffffffffffffffffffffffffffffffffffffffff1673ffffffffffffffffffffffffffffffffffffffff163373ffffffffffffffffffffffffffffffffffffffff1614611003576040517f08c379a0000000000000000000000000000000000000000000000000000000008152600401610ffa906131f7565b60405180910390fd5b6000600381111561103d577f4e487b7100000000000000000000000000000000000000000000000000000000600052602160045260246000fd5b8160080160009054906101000a900460ff166003811115611087577f4e487b7100000000000000000000000000000000000000000000000000000000600052602160045260246000fd5b146110c7576040517f08c379a00000000000000000000000000000000000000000000000000000000081526004016110be90613097565b60405180910390fd5b8060050154341461110d576040517f08c379a000000000000000000000000000000000000000000000000000000000815260040161110490613197565b60405180910390fd5b60018160080160006101000a81548160ff0219169083600381111561115b577f4e487b7100000000000000000000000000000000000000000000000000000000600052602160045260246000fd5b02179055503373ffffffffffffffffffffffffffffffffffffffff167f02a1e2b102b2abfec4db5b5403f79fe06aa66cfef8cf4fc1017e47655c9c82253483600701426040516111ad939291906132f4565b60405180910390a25050565b600081815481106111c957600080fd5b90600052602060002090600a02016000915090508060000160009054906101000a900473ffffffffffffffffffffffffffffffffffffffff16908060010160009054906101000a900473ffffffffffffffffffffffffffffffffffffffff169080600201549080600301549080600401805461124490613530565b80601f016020809104026020016040519081016040528092919081815260200182805461127090613530565b80156112bd5780601f10611292576101008083540402835291602001916112bd565b820191906000526020600020905b8154815290600101906020018083116112a057829003601f168201915b5050505050908060050154908060060154908060070180546112de90613530565b80601f016020809104026020016040519081016040528092919081815260200182805461130a90613530565b80156113575780601f1061132c57610100808354040283529160200191611357565b820191906000526020600020905b81548152906001019060200180831161133a57829003601f168201915b5050505050908060080160009054906101000a900460ff1690806009015490508a565b80600081815481106113b5577f4e487b7100000000000000000000000000000000000000000000000000000000600052603260045260246000fd5b90600052602060002090600a020160000160009054906101000a900473ffffffffffffffffffffffffffffffffffffffff1673ffffffffffffffffffffffffffffffffffffffff163373ffffffffffffffffffffffffffffffffffffffff1614611454576040517f08c379a000000000000000000000000000000000000000000000000000000000815260040161144b906130b7565b60405180910390fd5b8160038081111561148e577f4e487b7100000000000000000000000000000000000000000000000000000000600052602160045260246000fd5b600082815481106114c8577f4e487b7100000000000000000000000000000000000000000000000000000000600052603260045260246000fd5b90600052602060002090600a020160080160009054906101000a900460ff16600381111561151f577f4e487b7100000000000000000000000000000000000000000000000000000000600052602160045260246000fd5b1415611560576040517f08c379a000000000000000000000000000000000000000000000000000000000815260040161155790613137565b60405180910390fd5b600080848154811061159b577f4e487b7100000000000000000000000000000000000000000000000000000000600052603260045260246000fd5b90600052602060002090600a02019050806003015442116115f1576040517f08c379a00000000000000000000000000000000000000000000000000000000081526004016115e890613217565b60405180910390fd5b6002600381111561162b577f4e487b7100000000000000000000000000000000000000000000000000000000600052602160045260246000fd5b8160080160009054906101000a900460ff166003811115611675577f4e487b7100000000000000000000000000000000000000000000000000000000600052602160045260246000fd5b1415611768578060010160009054906101000a900473ffffffffffffffffffffffffffffffffffffffff1673ffffffffffffffffffffffffffffffffffffffff166108fc82600501549081150290604051600060405180830381858888f193505050501580156116e9573d6000803e3d6000fd5b508060010160009054906101000a900473ffffffffffffffffffffffffffffffffffffffff1673ffffffffffffffffffffffffffffffffffffffff167fdb9c314fac9ff457de5c842044f1bc3ef7c670f7c60a64484bc75831c4270cef8260050154836007014260405161175f939291906132f4565b60405180910390a25b60038160080160006101000a81548160ff021916908360038111156117b6577f4e487b7100000000000000000000000000000000000000000000000000000000600052602160045260246000fd5b02179055508060010160009054906101000a900473ffffffffffffffffffffffffffffffffffffffff1673ffffffffffffffffffffffffffffffffffffffff168160000160009054906101000a900473ffffffffffffffffffffffffffffffffffffffff1673ffffffffffffffffffffffffffffffffffffffff167fe333e1780e73b76312b3e4dcdaa176843638fa200ae744da417bf68b1828a4448360070142604051611865929190613047565b60405180910390a350505050565b81600081815481106118ae577f4e487b7100000000000000000000000000000000000000000000000000000000600052603260045260246000fd5b90600052602060002090600a020160000160009054906101000a900473ffffffffffffffffffffffffffffffffffffffff1673ffffffffffffffffffffffffffffffffffffffff163373ffffffffffffffffffffffffffffffffffffffff161461194d576040517f08c379a0000000000000000000000000000000000000000000000000000000008152600401611944906130b7565b60405180910390fd5b82600380811115611987577f4e487b7100000000000000000000000000000000000000000000000000000000600052602160045260246000fd5b600082815481106119c1577f4e487b7100000000000000000000000000000000000000000000000000000000600052603260045260246000fd5b90600052602060002090600a020160080160009054906101000a900460ff166003811115611a18577f4e487b7100000000000000000000000000000000000000000000000000000000600052602160045260246000fd5b1415611a59576040517f08c379a0000000000000000000000000000000000000000000000000000000008152600401611a5090613137565b60405180910390fd5b6000808581548110611a94577f4e487b7100000000000000000000000000000000000000000000000000000000600052603260045260246000fd5b90600052602060002090600a0201905060008411611ae7576040517f08c379a0000000000000000000000000000000000000000000000000000000008152600401611ade90613277565b60405180910390fd5b8060000160009054906101000a900473ffffffffffffffffffffffffffffffffffffffff1673ffffffffffffffffffffffffffffffffffffffff166108fc859081150290604051600060405180830381858888f19350505050158015611b51573d6000803e3d6000fd5b508060010160009054906101000a900473ffffffffffffffffffffffffffffffffffffffff1673ffffffffffffffffffffffffffffffffffffffff167fcf40cadcd86c14cb7e696a86578255719f67bc54bf991d45d267ee6e01467c198542604051611bbe929190613332565b60405180910390a25050505050565b8060008181548110611c08577f4e487b7100000000000000000000000000000000000000000000000000000000600052603260045260246000fd5b90600052602060002090600a020160010160009054906101000a900473ffffffffffffffffffffffffffffffffffffffff1673ffffffffffffffffffffffffffffffffffffffff163373ffffffffffffffffffffffffffffffffffffffff1614611ca7576040517f08c379a0000000000000000000000000000000000000000000000000000000008152600401611c9e90613117565b60405180910390fd5b8160008181548110611ce2577f4e487b7100000000000000000000000000000000000000000000000000000000600052603260045260246000fd5b90600052602060002090600a0201600201544210158015611d4e575060008181548110611d38577f4e487b7100000000000000000000000000000000000000000000000000000000600052603260045260246000fd5b90600052602060002090600a0201600301544211155b611d8d576040517f08c379a0000000000000000000000000000000000000000000000000000000008152600401611d8490613237565b60405180910390fd5b82600380811115611dc7577f4e487b7100000000000000000000000000000000000000000000000000000000600052602160045260246000fd5b60008281548110611e01577f4e487b7100000000000000000000000000000000000000000000000000000000600052603260045260246000fd5b90600052602060002090600a020160080160009054906101000a900460ff166003811115611e58577f4e487b7100000000000000000000000000000000000000000000000000000000600052602160045260246000fd5b1415611e99576040517f08c379a0000000000000000000000000000000000000000000000000000000008152600401611e9090613137565b60405180910390fd5b6000805490508410611ee0576040517f08c379a0000000000000000000000000000000000000000000000000000000008152600401611ed790613157565b60405180910390fd5b6000808581548110611f1b577f4e487b7100000000000000000000000000000000000000000000000000000000600052603260045260246000fd5b90600052602060002090600a0201905060026003811115611f65577f4e487b7100000000000000000000000000000000000000000000000000000000600052602160045260246000fd5b8160080160009054906101000a900460ff166003811115611faf577f4e487b7100000000000000000000000000000000000000000000000000000000600052602160045260246000fd5b148061203c575060016003811115611ff0577f4e487b7100000000000000000000000000000000000000000000000000000000600052602160045260246000fd5b8160080160009054906101000a900460ff16600381111561203a577f4e487b7100000000000000000000000000000000000000000000000000000000600052602160045260246000fd5b145b61207b576040517f08c379a0000000000000000000000000000000000000000000000000000000008152600401612072906130f7565b60405180910390fd5b806006015434146120c1576040517f08c379a00000000000000000000000000000000000000000000000000000000081526004016120b8906130d7565b60405180910390fd5b60008160090154141561216d578060020154421015612115576040517f08c379a000000000000000000000000000000000000000000000000000000000815260040161210c90613177565b60405180910390fd5b60028160080160006101000a81548160ff02191690836003811115612163577f4e487b7100000000000000000000000000000000000000000000000000000000600052602160045260246000fd5b02179055506121c9565b600062278d0082600901546121829190613437565b9050804210156121c7576040517f08c379a00000000000000000000000000000000000000000000000000000000081526004016121be90613257565b60405180910390fd5b505b4281600901819055508060000160009054906101000a900473ffffffffffffffffffffffffffffffffffffffff1673ffffffffffffffffffffffffffffffffffffffff166108fc349081150290604051600060405180830381858888f1935050505015801561223c573d6000803e3d6000fd5b508060000160009054906101000a900473ffffffffffffffffffffffffffffffffffffffff1673ffffffffffffffffffffffffffffffffffffffff163373ffffffffffffffffffffffffffffffffffffffff167f53d8f6089d902f87f506cbe2fd7aa28135292f98afb226e8374c5291077b42523484600701426040516122c5939291906132f4565b60405180910390a35050505050565b62093a8081565b604051806101400160405280600073ffffffffffffffffffffffffffffffffffffffff168152602001600073ffffffffffffffffffffffffffffffffffffffff16815260200160008152602001600081526020016060815260200160008152602001600081526020016060815260200160006003811115612385577f4e487b7100000000000000000000000000000000000000000000000000000000600052602160045260246000fd5b8152602001600081525090565b82805461239e90613530565b90600052602060002090601f0160209004810192826123c05760008555612407565b82601f106123d957805160ff1916838001178555612407565b82800160010185558215612407579182015b828111156124065782518255916020019190600101906123eb565b5b5090506124149190612418565b5090565b5b80821115612431576000816000905550600101612419565b5090565b60006124486124438461338c565b61335b565b90508281526020810184848401111561246057600080fd5b61246b8482856134ee565b509392505050565b60008135905061248281613643565b92915050565b600082601f83011261249957600080fd5b81356124a9848260208601612435565b91505092915050565b6000813590506124c18161365a565b92915050565b600080600080600080600080610100898b0312156124e457600080fd5b60006124f28b828c01612473565b98505060206125038b828c01612473565b97505060406125148b828c016124b2565b96505060606125258b828c016124b2565b955050608089013567ffffffffffffffff81111561254257600080fd5b61254e8b828c01612488565b94505060a061255f8b828c016124b2565b93505060c089013567ffffffffffffffff81111561257c57600080fd5b6125888b828c01612488565b92505060e06125998b828c016124b2565b9150509295985092959890939650565b6000602082840312156125bb57600080fd5b60006125c9848285016124b2565b91505092915050565b600080604083850312156125e557600080fd5b60006125f3858286016124b2565b9250506020612604858286016124b2565b9150509250929050565b600061261a8383612d9b565b905092915050565b61262b8161348d565b82525050565b61263a8161348d565b82525050565b600061264b826133e1565b6126558185613404565b935083602082028501612667856133bc565b8060005b858110156126a35784840389528151612684858261260e565b945061268f836133f7565b925060208a0199505060018101905061266b565b50829750879550505050505092915050565b6126be816134dc565b82525050565b6126cd816134dc565b82525050565b60006126de826133ec565b6126e88185613415565b93506126f88185602086016134fd565b6127018161361e565b840191505092915050565b6000612717826133ec565b6127218185613426565b93506127318185602086016134fd565b61273a8161361e565b840191505092915050565b6000815461275281613530565b61275c8186613426565b945060018216600081146127775760018114612789576127bc565b60ff19831686526020860193506127bc565b612792856133cc565b60005b838110156127b457815481890152600182019150602081019050612795565b808801955050505b50505092915050565b60006127d2601483613426565b91507f496e76616c69642072656e74616c2064617465730000000000000000000000006000830152602082019050919050565b6000612812601883613426565b91507f436f6e747261637420616c7265616479206372656174656400000000000000006000830152602082019050919050565b6000612852602683613426565b91507f4f6e6c7920746865206f776e65722063616e20706572666f726d20746869732060008301527f616374696f6e00000000000000000000000000000000000000000000000000006020830152604082019050919050565b60006128b8601583613426565b91507f496e636f72726563742072656e7420616d6f756e7400000000000000000000006000830152602082019050919050565b60006128f8602a83613426565b91507f52656e74616c20706572696f64206e6f742073746172746564206f7220616c7260008301527f6561647920656e646564000000000000000000000000000000000000000000006020830152604082019050919050565b600061295e602783613426565b91507f4f6e6c79207468652072656e7465722063616e20706572666f726d207468697360008301527f20616374696f6e000000000000000000000000000000000000000000000000006020830152604082019050919050565b60006129c4601083613426565b91507f52656e74616c2068617320656e646564000000000000000000000000000000006000830152602082019050919050565b6000612a04601483613426565b91507f496e76616c69642072656e74616c20696e6465780000000000000000000000006000830152602082019050919050565b6000612a44602783613426565b91507f4e6f74207965742074696d6520666f72207468652066697273742072656e742060008301527f7061796d656e74000000000000000000000000000000000000000000000000006020830152604082019050919050565b6000612aaa601883613426565b91507f496e636f7272656374206465706f73697420616d6f756e7400000000000000006000830152602082019050919050565b6000612aea602683613426565b91507f4f6e6c7920746865206f776e65722063616e206372656174652074686520636f60008301527f6e747261637400000000000000000000000000000000000000000000000000006020830152604082019050919050565b6000612b50601083613426565b91507f4465706f736974206e6f74206d616465000000000000000000000000000000006000830152602082019050919050565b6000612b90602283613426565b91507f4f6e6c79207468652072656e7465722063616e206d616b652061206465706f7360008301527f69740000000000000000000000000000000000000000000000000000000000006020830152604082019050919050565b6000612bf6602783613426565b91507f43616e6e6f7420656e6420636f6e7472616374206265666f726520746865206560008301527f6e642064617465000000000000000000000000000000000000000000000000006020830152604082019050919050565b6000612c5c601883613426565b91507f4e6f742077697468696e2072656e74616c20706572696f6400000000000000006000830152602082019050919050565b6000612c9c602683613426565b91507f4e6f74207965742074696d6520666f7220746865206e6578742072656e74207060008301527f61796d656e7400000000000000000000000000000000000000000000000000006020830152604082019050919050565b6000612d02602883613426565b91507f50656e616c747920616d6f756e74206d7573742062652067726561746572207460008301527f68616e207a65726f0000000000000000000000000000000000000000000000006020830152604082019050919050565b6000612d68601f83613426565b91507f4372656174696f6e20706572696f64206e6f74207965742065787069726564006000830152602082019050919050565b600061014083016000830151612db46000860182612622565b506020830151612dc76020860182612622565b506040830151612dda6040860182612f5d565b506060830151612ded6060860182612f5d565b5060808301518482036080860152612e0582826126d3565b91505060a0830151612e1a60a0860182612f5d565b5060c0830151612e2d60c0860182612f5d565b5060e083015184820360e0860152612e4582826126d3565b915050610100830151612e5c6101008601826126b5565b50610120830151612e71610120860182612f5d565b508091505092915050565b600061014083016000830151612e956000860182612622565b506020830151612ea86020860182612622565b506040830151612ebb6040860182612f5d565b506060830151612ece6060860182612f5d565b5060808301518482036080860152612ee682826126d3565b91505060a0830151612efb60a0860182612f5d565b5060c0830151612f0e60c0860182612f5d565b5060e083015184820360e0860152612f2682826126d3565b915050610100830151612f3d6101008601826126b5565b50610120830151612f52610120860182612f5d565b508091505092915050565b612f66816134d2565b82525050565b612f75816134d2565b82525050565b600061014082019050612f91600083018d612631565b612f9e602083018c612631565b612fab604083018b612f6c565b612fb8606083018a612f6c565b8181036080830152612fca818961270c565b9050612fd960a0830188612f6c565b612fe660c0830187612f6c565b81810360e0830152612ff8818661270c565b90506130086101008301856126c4565b613016610120830184612f6c565b9b9a5050505050505050505050565b6000602082019050818103600083015261303f8184612640565b905092915050565b600060408201905081810360008301526130618185612745565b90506130706020830184612f6c565b9392505050565b60006020820190508181036000830152613090816127c5565b9050919050565b600060208201905081810360008301526130b081612805565b9050919050565b600060208201905081810360008301526130d081612845565b9050919050565b600060208201905081810360008301526130f0816128ab565b9050919050565b60006020820190508181036000830152613110816128eb565b9050919050565b6000602082019050818103600083015261313081612951565b9050919050565b60006020820190508181036000830152613150816129b7565b9050919050565b60006020820190508181036000830152613170816129f7565b9050919050565b6000602082019050818103600083015261319081612a37565b9050919050565b600060208201905081810360008301526131b081612a9d565b9050919050565b600060208201905081810360008301526131d081612add565b9050919050565b600060208201905081810360008301526131f081612b43565b9050919050565b6000602082019050818103600083015261321081612b83565b9050919050565b6000602082019050818103600083015261323081612be9565b9050919050565b6000602082019050818103600083015261325081612c4f565b9050919050565b6000602082019050818103600083015261327081612c8f565b9050919050565b6000602082019050818103600083015261329081612cf5565b9050919050565b600060208201905081810360008301526132b081612d5b565b9050919050565b600060208201905081810360008301526132d18184612e7c565b905092915050565b60006020820190506132ee6000830184612f6c565b92915050565b60006060820190506133096000830186612f6c565b818103602083015261331b8185612745565b905061332a6040830184612f6c565b949350505050565b60006040820190506133476000830185612f6c565b6133546020830184612f6c565b9392505050565b6000604051905081810181811067ffffffffffffffff82111715613382576133816135ef565b5b8060405250919050565b600067ffffffffffffffff8211156133a7576133a66135ef565b5b601f19601f8301169050602081019050919050565b6000819050602082019050919050565b60008190508160005260206000209050919050565b600081519050919050565b600081519050919050565b6000602082019050919050565b600082825260208201905092915050565b600082825260208201905092915050565b600082825260208201905092915050565b6000613442826134d2565b915061344d836134d2565b9250827fffffffffffffffffffffffffffffffffffffffffffffffffffffffffffffffff0382111561348257613481613562565b5b828201905092915050565b6000613498826134b2565b9050919050565b60008190506134ad8261362f565b919050565b600073ffffffffffffffffffffffffffffffffffffffff82169050919050565b6000819050919050565b60006134e78261349f565b9050919050565b82818337600083830152505050565b60005b8381101561351b578082015181840152602081019050613500565b8381111561352a576000848401525b50505050565b6000600282049050600182168061354857607f821691505b6020821081141561355c5761355b6135c0565b5b50919050565b7f4e487b7100000000000000000000000000000000000000000000000000000000600052601160045260246000fd5b7f4e487b7100000000000000000000000000000000000000000000000000000000600052602160045260246000fd5b7f4e487b7100000000000000000000000000000000000000000000000000000000600052602260045260246000fd5b7f4e487b7100000000000000000000000000000000000000000000000000000000600052604160045260246000fd5b6000601f19601f8301169050919050565b600481106136405761363f613591565b5b50565b61364c8161348d565b811461365757600080fd5b50565b613663816134d2565b811461366e57600080fd5b5056fea264697066735822122007eaef67c0e0c55b2f8964fd01819c7746a47ce640fff6f66b6fe9a69e3f49ba64736f6c63430008000033",
  "immutableReferences": {},
  "source": "// SPDX-License-Identifier: MIT\r\npragma solidity ^0.8.0;\r\n\r\ncontract RentalContract {\r\n    enum RentalStatus { NotCreated, Deposited, Ongoing, Ended }\r\n\r\n    struct Rental {\r\n        address payable owner;\r\n        address payable renter;\r\n        uint startDate;\r\n        uint endDate;\r\n        string details;\r\n        uint depositAmount;\r\n        uint monthlyRent;\r\n        string propertyId;\r\n        RentalStatus status;\r\n        uint lastPaymentDate; // Ngy thanh ton cui cng\r\n    }\r\n\r\n    Rental[] public rentals;\r\n\r\n    uint public constant MAX_CREATION_PERIOD = 7 days;\r\n\r\n    event ContractCreated(address indexed owner, address indexed renter, string propertyId, uint startDate, uint endDate);\r\n    event RentPaid(address indexed renter, address indexed owner, uint amount, string propertyId, uint timestamp);\r\n    event DepositReturned(address indexed renter, uint amount, string propertyId, uint timestamp);\r\n    event PenaltyApplied(address indexed renter, uint amount, uint timestamp);\r\n    event ContractEnded(address indexed owner, address indexed renter, string propertyId, uint timestamp);\r\n    event DepositMade(address indexed renter, uint amount, string propertyId, uint timestamp);\r\n    event DepositCancelled(address indexed renter, uint amount, string propertyId, uint timestamp);\r\n\r\n    modifier onlyOwner(uint _rentalIndex) {\r\n        require(msg.sender == rentals[_rentalIndex].owner, \"Only the owner can perform this action\");\r\n        _;\r\n    }\r\n\r\n    modifier onlyRenter(uint _rentalIndex) {\r\n        require(msg.sender == rentals[_rentalIndex].renter, \"Only the renter can perform this action\");\r\n        _;\r\n    }\r\n\r\n    modifier inRentalPeriod(uint _rentalIndex) {\r\n        require(block.timestamp >= rentals[_rentalIndex].startDate && block.timestamp <= rentals[_rentalIndex].endDate, \"Not within rental period\");\r\n        _;\r\n    }\r\n\r\n    modifier rentalNotEnded(uint _rentalIndex) {\r\n        require(rentals[_rentalIndex].status != RentalStatus.Ended, \"Rental has ended\");\r\n        _;\r\n    }\r\n\r\n    function createContract(\r\n        address payable _owner,\r\n        address payable _renter,\r\n        uint _startDate,\r\n        uint _endDate,\r\n        string memory _details,\r\n        uint _monthlyRent,\r\n        string memory _propertyId,\r\n        uint _depositAmount\r\n    ) public {\r\n        require(_startDate < _endDate, \"Invalid rental dates\");\r\n        require(msg.sender == _owner, \"Only the owner can create the contract\");\r\n\r\n        Rental memory newRental = Rental({\r\n            owner: _owner,\r\n            renter: _renter,\r\n            startDate: _startDate,\r\n            endDate: _endDate,\r\n            details: _details,\r\n            depositAmount: _depositAmount,\r\n            monthlyRent: _monthlyRent,\r\n            propertyId: _propertyId,\r\n            status: RentalStatus.NotCreated,\r\n            lastPaymentDate: 0\r\n        });\r\n\r\n        rentals.push(newRental);\r\n    }\r\n\r\n    function depositAndCreateContract(uint _rentalIndex) public payable {\r\n        require(_rentalIndex < rentals.length, \"Invalid rental index\");\r\n        Rental storage rental = rentals[_rentalIndex];\r\n\r\n        require(msg.sender == rental.renter, \"Only the renter can make a deposit\");\r\n        require(rental.status == RentalStatus.NotCreated, \"Contract already created\");\r\n        require(msg.value == rental.depositAmount, \"Incorrect deposit amount\");\r\n\r\n        rental.status = RentalStatus.Deposited;\r\n\r\n        emit DepositMade(msg.sender, msg.value, rental.propertyId, block.timestamp);\r\n    }\r\n\r\n    function payRent(uint _rentalIndex) public payable onlyRenter(_rentalIndex) inRentalPeriod(_rentalIndex) rentalNotEnded(_rentalIndex) {\r\n        require(_rentalIndex < rentals.length, \"Invalid rental index\");\r\n        Rental storage rental = rentals[_rentalIndex];\r\n\r\n        require(rental.status == RentalStatus.Ongoing || rental.status == RentalStatus.Deposited, \"Rental period not started or already ended\");\r\n        require(msg.value == rental.monthlyRent, \"Incorrect rent amount\");\r\n\r\n        // Nu l ln thanh ton u tin, chuyn trng thi thnh Ongoing\r\n        if (rental.lastPaymentDate == 0) {\r\n            require(block.timestamp >= rental.startDate, \"Not yet time for the first rent payment\");\r\n            rental.status = RentalStatus.Ongoing; // Chuyn trng thi hp ng thnh Ongoing\r\n        } else {\r\n            uint nextPaymentDate = rental.lastPaymentDate + 30 days;\r\n            require(block.timestamp >= nextPaymentDate, \"Not yet time for the next rent payment\");\r\n        }\r\n\r\n        rental.lastPaymentDate = block.timestamp;\r\n        rental.owner.transfer(msg.value);\r\n\r\n        emit RentPaid(msg.sender, rental.owner, msg.value, rental.propertyId, block.timestamp);\r\n    }\r\n\r\n    function endContract(uint _rentalIndex) public onlyOwner(_rentalIndex) rentalNotEnded(_rentalIndex) {\r\n        Rental storage rental = rentals[_rentalIndex];\r\n        require(block.timestamp > rental.endDate, \"Cannot end contract before the end date\");\r\n\r\n        if (rental.status == RentalStatus.Ongoing) {\r\n            rental.renter.transfer(rental.depositAmount);\r\n            emit DepositReturned(rental.renter, rental.depositAmount, rental.propertyId, block.timestamp);\r\n        }\r\n\r\n        rental.status = RentalStatus.Ended;\r\n\r\n        emit ContractEnded(rental.owner, rental.renter, rental.propertyId, block.timestamp);\r\n    }\r\n\r\n    function applyPenalty(uint _rentalIndex, uint _penaltyAmount) public onlyOwner(_rentalIndex) rentalNotEnded(_rentalIndex) {\r\n        Rental storage rental = rentals[_rentalIndex];\r\n        require(_penaltyAmount > 0, \"Penalty amount must be greater than zero\");\r\n\r\n        rental.owner.transfer(_penaltyAmount);\r\n        emit PenaltyApplied(rental.renter, _penaltyAmount, block.timestamp);\r\n    }\r\n\r\n    function cancelDeposit(uint _rentalIndex) public onlyRenter(_rentalIndex) {\r\n        require(_rentalIndex < rentals.length, \"Invalid rental index\");\r\n        Rental storage rental = rentals[_rentalIndex];\r\n\r\n        require(rental.status == RentalStatus.Deposited, \"Deposit not made\");\r\n        require(block.timestamp > rental.startDate + MAX_CREATION_PERIOD, \"Creation period not yet expired\");\r\n\r\n        uint depositAmount = rental.depositAmount;\r\n        rental.depositAmount = 0; // To prevent re-entrancy attacks\r\n        rental.status = RentalStatus.NotCreated; // Reset status\r\n\r\n        payable(rental.renter).transfer(depositAmount);\r\n\r\n        emit DepositCancelled(rental.renter, depositAmount, rental.propertyId, block.timestamp);\r\n    }\r\n\r\n    function getRentalDetails(uint _rentalIndex) public view returns (Rental memory) {\r\n        return rentals[_rentalIndex];\r\n    }\r\n\r\n    function getAllRentals() public view returns (Rental[] memory) {\r\n        return rentals;\r\n    }\r\n}\r\n",
  "sourcePath": "E:\\kltn-backend\\contract-service\\contractRental\\contracts\\RentalContract.sol",
  "compiler": {
    "name": "solc",
    "version": "0.8.0+commit.c7dfd78e.Emscripten.clang"
  },
  "schemaVersion": "3.4.16",
  "updatedAt": "2024-08-18T09:13:57.721Z",
  "networkType": "ethereum",
  "devdoc": {
    "kind": "dev",
    "methods": {},
    "version": 1
  },
  "userdoc": {
    "kind": "user",
    "methods": {},
    "version": 1
  }
}