{
  "contractName": "RentalContract",
  "abi": [
    {
      "anonymous": false,
      "inputs": [
        {
          "indexed": true,
          "internalType": "address",
          "name": "owner",
          "type": "address"
        },
        {
          "indexed": true,
          "internalType": "address",
          "name": "renter",
          "type": "address"
        },
        {
          "indexed": false,
          "internalType": "string",
          "name": "propertyId",
          "type": "string"
        },
        {
          "indexed": false,
          "internalType": "uint256",
          "name": "startDate",
          "type": "uint256"
        },
        {
          "indexed": false,
          "internalType": "uint256",
          "name": "endDate",
          "type": "uint256"
        }
      ],
      "name": "ContractCreated",
      "type": "event"
    },
    {
      "anonymous": false,
      "inputs": [
        {
          "indexed": true,
          "internalType": "address",
          "name": "owner",
          "type": "address"
        },
        {
          "indexed": true,
          "internalType": "address",
          "name": "renter",
          "type": "address"
        },
        {
          "indexed": false,
          "internalType": "string",
          "name": "propertyId",
          "type": "string"
        },
        {
          "indexed": false,
          "internalType": "uint256",
          "name": "timestamp",
          "type": "uint256"
        }
      ],
      "name": "ContractEnded",
      "type": "event"
    },
    {
      "anonymous": false,
      "inputs": [
        {
          "indexed": true,
          "internalType": "address",
          "name": "renter",
          "type": "address"
        },
        {
          "indexed": false,
          "internalType": "uint256",
          "name": "amount",
          "type": "uint256"
        },
        {
          "indexed": false,
          "internalType": "string",
          "name": "propertyId",
          "type": "string"
        },
        {
          "indexed": false,
          "internalType": "uint256",
          "name": "timestamp",
          "type": "uint256"
        }
      ],
      "name": "DepositCancelled",
      "type": "event"
    },
    {
      "anonymous": false,
      "inputs": [
        {
          "indexed": true,
          "internalType": "address",
          "name": "renter",
          "type": "address"
        },
        {
          "indexed": false,
          "internalType": "uint256",
          "name": "amount",
          "type": "uint256"
        },
        {
          "indexed": false,
          "internalType": "string",
          "name": "propertyId",
          "type": "string"
        },
        {
          "indexed": false,
          "internalType": "uint256",
          "name": "timestamp",
          "type": "uint256"
        }
      ],
      "name": "DepositMade",
      "type": "event"
    },
    {
      "anonymous": false,
      "inputs": [
        {
          "indexed": true,
          "internalType": "address",
          "name": "renter",
          "type": "address"
        },
        {
          "indexed": false,
          "internalType": "uint256",
          "name": "amount",
          "type": "uint256"
        },
        {
          "indexed": false,
          "internalType": "string",
          "name": "propertyId",
          "type": "string"
        },
        {
          "indexed": false,
          "internalType": "uint256",
          "name": "timestamp",
          "type": "uint256"
        }
      ],
      "name": "DepositReturned",
      "type": "event"
    },
    {
      "anonymous": false,
      "inputs": [
        {
          "indexed": true,
          "internalType": "address",
          "name": "renter",
          "type": "address"
        },
        {
          "indexed": false,
          "internalType": "uint256",
          "name": "amount",
          "type": "uint256"
        },
        {
          "indexed": false,
          "internalType": "uint256",
          "name": "timestamp",
          "type": "uint256"
        }
      ],
      "name": "PenaltyApplied",
      "type": "event"
    },
    {
      "anonymous": false,
      "inputs": [
        {
          "indexed": true,
          "internalType": "address",
          "name": "renter",
          "type": "address"
        },
        {
          "indexed": true,
          "internalType": "address",
          "name": "owner",
          "type": "address"
        },
        {
          "indexed": false,
          "internalType": "uint256",
          "name": "amount",
          "type": "uint256"
        },
        {
          "indexed": false,
          "internalType": "string",
          "name": "propertyId",
          "type": "string"
        },
        {
          "indexed": false,
          "internalType": "uint256",
          "name": "timestamp",
          "type": "uint256"
        }
      ],
      "name": "RentPaid",
      "type": "event"
    },
    {
      "inputs": [],
      "name": "MAX_CREATION_PERIOD",
      "outputs": [
        {
          "internalType": "uint256",
          "name": "",
          "type": "uint256"
        }
      ],
      "stateMutability": "view",
      "type": "function",
      "constant": true
    },
    {
      "inputs": [
        {
          "internalType": "uint256",
          "name": "",
          "type": "uint256"
        }
      ],
      "name": "rentals",
      "outputs": [
        {
          "internalType": "address payable",
          "name": "owner",
          "type": "address"
        },
        {
          "internalType": "address payable",
          "name": "renter",
          "type": "address"
        },
        {
          "internalType": "uint256",
          "name": "startDate",
          "type": "uint256"
        },
        {
          "internalType": "uint256",
          "name": "endDate",
          "type": "uint256"
        },
        {
          "internalType": "string",
          "name": "details",
          "type": "string"
        },
        {
          "internalType": "uint256",
          "name": "depositAmount",
          "type": "uint256"
        },
        {
          "internalType": "uint256",
          "name": "monthlyRent",
          "type": "uint256"
        },
        {
          "internalType": "string",
          "name": "propertyId",
          "type": "string"
        },
        {
          "internalType": "enum RentalContract.RentalStatus",
          "name": "status",
          "type": "uint8"
        }
      ],
      "stateMutability": "view",
      "type": "function",
      "constant": true
    },
    {
      "inputs": [
        {
          "internalType": "address payable",
          "name": "_renter",
          "type": "address"
        },
        {
          "internalType": "uint256",
          "name": "_startDate",
          "type": "uint256"
        },
        {
          "internalType": "uint256",
          "name": "_endDate",
          "type": "uint256"
        },
        {
          "internalType": "string",
          "name": "_details",
          "type": "string"
        },
        {
          "internalType": "uint256",
          "name": "_monthlyRent",
          "type": "uint256"
        },
        {
          "internalType": "string",
          "name": "_propertyId",
          "type": "string"
        },
        {
          "internalType": "uint256",
          "name": "_depositAmount",
          "type": "uint256"
        }
      ],
      "name": "createContract",
      "outputs": [],
      "stateMutability": "nonpayable",
      "type": "function"
    },
    {
      "inputs": [
        {
          "internalType": "uint256",
          "name": "_rentalIndex",
          "type": "uint256"
        }
      ],
      "name": "depositAndCreateContract",
      "outputs": [],
      "stateMutability": "payable",
      "type": "function",
      "payable": true
    },
    {
      "inputs": [
        {
          "internalType": "uint256",
          "name": "_rentalIndex",
          "type": "uint256"
        }
      ],
      "name": "payRent",
      "outputs": [],
      "stateMutability": "payable",
      "type": "function",
      "payable": true
    },
    {
      "inputs": [
        {
          "internalType": "uint256",
          "name": "_rentalIndex",
          "type": "uint256"
        }
      ],
      "name": "endContract",
      "outputs": [],
      "stateMutability": "nonpayable",
      "type": "function"
    },
    {
      "inputs": [
        {
          "internalType": "uint256",
          "name": "_rentalIndex",
          "type": "uint256"
        },
        {
          "internalType": "uint256",
          "name": "_penaltyAmount",
          "type": "uint256"
        }
      ],
      "name": "applyPenalty",
      "outputs": [],
      "stateMutability": "nonpayable",
      "type": "function"
    },
    {
      "inputs": [
        {
          "internalType": "uint256",
          "name": "_rentalIndex",
          "type": "uint256"
        }
      ],
      "name": "cancelDeposit",
      "outputs": [],
      "stateMutability": "nonpayable",
      "type": "function"
    },
    {
      "inputs": [
        {
          "internalType": "uint256",
          "name": "_rentalIndex",
          "type": "uint256"
        }
      ],
      "name": "getRentalDetails",
      "outputs": [
        {
          "components": [
            {
              "internalType": "address payable",
              "name": "owner",
              "type": "address"
            },
            {
              "internalType": "address payable",
              "name": "renter",
              "type": "address"
            },
            {
              "internalType": "uint256",
              "name": "startDate",
              "type": "uint256"
            },
            {
              "internalType": "uint256",
              "name": "endDate",
              "type": "uint256"
            },
            {
              "internalType": "string",
              "name": "details",
              "type": "string"
            },
            {
              "internalType": "uint256",
              "name": "depositAmount",
              "type": "uint256"
            },
            {
              "internalType": "uint256",
              "name": "monthlyRent",
              "type": "uint256"
            },
            {
              "internalType": "string",
              "name": "propertyId",
              "type": "string"
            },
            {
              "internalType": "enum RentalContract.RentalStatus",
              "name": "status",
              "type": "uint8"
            }
          ],
          "internalType": "struct RentalContract.Rental",
          "name": "",
          "type": "tuple"
        }
      ],
      "stateMutability": "view",
      "type": "function",
      "constant": true
    },
    {
      "inputs": [],
      "name": "getAllRentals",
      "outputs": [
        {
          "components": [
            {
              "internalType": "address payable",
              "name": "owner",
              "type": "address"
            },
            {
              "internalType": "address payable",
              "name": "renter",
              "type": "address"
            },
            {
              "internalType": "uint256",
              "name": "startDate",
              "type": "uint256"
            },
            {
              "internalType": "uint256",
              "name": "endDate",
              "type": "uint256"
            },
            {
              "internalType": "string",
              "name": "details",
              "type": "string"
            },
            {
              "internalType": "uint256",
              "name": "depositAmount",
              "type": "uint256"
            },
            {
              "internalType": "uint256",
              "name": "monthlyRent",
              "type": "uint256"
            },
            {
              "internalType": "string",
              "name": "propertyId",
              "type": "string"
            },
            {
              "internalType": "enum RentalContract.RentalStatus",
              "name": "status",
              "type": "uint8"
            }
          ],
          "internalType": "struct RentalContract.Rental[]",
          "name": "",
          "type": "tuple[]"
        }
      ],
      "stateMutability": "view",
      "type": "function",
      "constant": true
    }
  ],
  "bytecode": "0x608060405234801561001057600080fd5b50613242806100206000396000f3fe6080604052600436106100915760003560e01c8063af94a1d111610059578063af94a1d11461016c578063c85a6b3d146101b1578063d0f08872146101da578063d9e8843f14610203578063f8e8a1421461021f57610091565b806317088b34146100965780635158ebdb146100d35780636ac2551d146100fc57806372fada5c14610127578063a1c8a5ce14610150575b600080fd5b3480156100a257600080fd5b506100bd60048036038101906100b89190612357565b61024a565b6040516100ca9190612e52565b60405180910390f35b3480156100df57600080fd5b506100fa60048036038101906100f59190612289565b61052c565b005b34801561010857600080fd5b50610111610796565b60405161011e9190612c02565b60405180910390f35b34801561013357600080fd5b5061014e60048036038101906101499190612357565b610a75565b005b61016a60048036038101906101659190612357565b610e49565b005b34801561017857600080fd5b50610193600480360381019061018e9190612357565b6111df565b6040516101a899989796959493929190612b67565b60405180910390f35b3480156101bd57600080fd5b506101d860048036038101906101d39190612357565b61139a565b005b3480156101e657600080fd5b5061020160048036038101906101fc9190612380565b611893565b005b61021d60048036038101906102189190612357565b611bed565b005b34801561022b57600080fd5b5061023461209d565b6040516102419190612e74565b60405180910390f35b6102526120a4565b6000828154811061028c577f4e487b7100000000000000000000000000000000000000000000000000000000600052603260045260246000fd5b9060005260206000209060090201604051806101200160405290816000820160009054906101000a900473ffffffffffffffffffffffffffffffffffffffff1673ffffffffffffffffffffffffffffffffffffffff1673ffffffffffffffffffffffffffffffffffffffff1681526020016001820160009054906101000a900473ffffffffffffffffffffffffffffffffffffffff1673ffffffffffffffffffffffffffffffffffffffff1673ffffffffffffffffffffffffffffffffffffffff1681526020016002820154815260200160038201548152602001600482018054610376906130cb565b80601f01602080910402602001604051908101604052809291908181526020018280546103a2906130cb565b80156103ef5780601f106103c4576101008083540402835291602001916103ef565b820191906000526020600020905b8154815290600101906020018083116103d257829003601f168201915b50505050508152602001600582015481526020016006820154815260200160078201805461041c906130cb565b80601f0160208091040260200160405190810160405280929190818152602001828054610448906130cb565b80156104955780601f1061046a57610100808354040283529160200191610495565b820191906000526020600020905b81548152906001019060200180831161047857829003601f168201915b505050505081526020016008820160009054906101000a900460ff1660038111156104e9577f4e487b7100000000000000000000000000000000000000000000000000000000600052602160045260246000fd5b6003811115610521577f4e487b7100000000000000000000000000000000000000000000000000000000600052602160045260246000fd5b815250509050919050565b84861061056e576040517f08c379a000000000000000000000000000000000000000000000000000000000815260040161056590612c92565b60405180910390fd5b60006040518061012001604052803373ffffffffffffffffffffffffffffffffffffffff1681526020018973ffffffffffffffffffffffffffffffffffffffff16815260200188815260200187815260200186815260200183815260200185815260200184815260200160006003811115610612577f4e487b7100000000000000000000000000000000000000000000000000000000600052602160045260246000fd5b8152509050600081908060018154018082558091505060019003906000526020600020906009020160009091909190915060008201518160000160006101000a81548173ffffffffffffffffffffffffffffffffffffffff021916908373ffffffffffffffffffffffffffffffffffffffff16021790555060208201518160010160006101000a81548173ffffffffffffffffffffffffffffffffffffffff021916908373ffffffffffffffffffffffffffffffffffffffff16021790555060408201518160020155606082015181600301556080820151816004019080519060200190610701929190612154565b5060a0820151816005015560c0820151816006015560e0820151816007019080519060200190610732929190612154565b506101008201518160080160006101000a81548160ff02191690836003811115610785577f4e487b7100000000000000000000000000000000000000000000000000000000600052602160045260246000fd5b021790555050505050505050505050565b60606000805480602002602001604051908101604052809291908181526020016000905b82821015610a6c5783829060005260206000209060090201604051806101200160405290816000820160009054906101000a900473ffffffffffffffffffffffffffffffffffffffff1673ffffffffffffffffffffffffffffffffffffffff1673ffffffffffffffffffffffffffffffffffffffff1681526020016001820160009054906101000a900473ffffffffffffffffffffffffffffffffffffffff1673ffffffffffffffffffffffffffffffffffffffff1673ffffffffffffffffffffffffffffffffffffffff16815260200160028201548152602001600382015481526020016004820180546108ae906130cb565b80601f01602080910402602001604051908101604052809291908181526020018280546108da906130cb565b80156109275780601f106108fc57610100808354040283529160200191610927565b820191906000526020600020905b81548152906001019060200180831161090a57829003601f168201915b505050505081526020016005820154815260200160068201548152602001600782018054610954906130cb565b80601f0160208091040260200160405190810160405280929190818152602001828054610980906130cb565b80156109cd5780601f106109a2576101008083540402835291602001916109cd565b820191906000526020600020905b8154815290600101906020018083116109b057829003601f168201915b505050505081526020016008820160009054906101000a900460ff166003811115610a21577f4e487b7100000000000000000000000000000000000000000000000000000000600052602160045260246000fd5b6003811115610a59577f4e487b7100000000000000000000000000000000000000000000000000000000600052602160045260246000fd5b81525050815260200190600101906107ba565b50505050905090565b8060008181548110610ab0577f4e487b7100000000000000000000000000000000000000000000000000000000600052603260045260246000fd5b906000526020600020906009020160010160009054906101000a900473ffffffffffffffffffffffffffffffffffffffff1673ffffffffffffffffffffffffffffffffffffffff163373ffffffffffffffffffffffffffffffffffffffff1614610b4f576040517f08c379a0000000000000000000000000000000000000000000000000000000008152600401610b4690612d12565b60405180910390fd5b6000805490508210610b96576040517f08c379a0000000000000000000000000000000000000000000000000000000008152600401610b8d90612d52565b60405180910390fd5b6000808381548110610bd1577f4e487b7100000000000000000000000000000000000000000000000000000000600052603260045260246000fd5b9060005260206000209060090201905060016003811115610c1b577f4e487b7100000000000000000000000000000000000000000000000000000000600052602160045260246000fd5b8160080160009054906101000a900460ff166003811115610c65577f4e487b7100000000000000000000000000000000000000000000000000000000600052602160045260246000fd5b14610ca5576040517f08c379a0000000000000000000000000000000000000000000000000000000008152600401610c9c90612d92565b60405180910390fd5b62093a808160020154610cb89190612fd2565b4211610cf9576040517f08c379a0000000000000000000000000000000000000000000000000000000008152600401610cf090612e32565b60405180910390fd5b6000816005015490506000826005018190555060008260080160006101000a81548160ff02191690836003811115610d5a577f4e487b7100000000000000000000000000000000000000000000000000000000600052602160045260246000fd5b02179055508160010160009054906101000a900473ffffffffffffffffffffffffffffffffffffffff1673ffffffffffffffffffffffffffffffffffffffff166108fc829081150290604051600060405180830381858888f19350505050158015610dc9573d6000803e3d6000fd5b508160010160009054906101000a900473ffffffffffffffffffffffffffffffffffffffff1673ffffffffffffffffffffffffffffffffffffffff167fbbe9a54344eb3b12acee59b455d9b15628ae26deb93dc27ed4ff151eab941d36828460070142604051610e3b93929190612e8f565b60405180910390a250505050565b6000805490508110610e90576040517f08c379a0000000000000000000000000000000000000000000000000000000008152600401610e8790612d52565b60405180910390fd5b6000808281548110610ecb577f4e487b7100000000000000000000000000000000000000000000000000000000600052603260045260246000fd5b906000526020600020906009020190508060010160009054906101000a900473ffffffffffffffffffffffffffffffffffffffff1673ffffffffffffffffffffffffffffffffffffffff163373ffffffffffffffffffffffffffffffffffffffff1614610f6d576040517f08c379a0000000000000000000000000000000000000000000000000000000008152600401610f6490612db2565b60405180910390fd5b60006003811115610fa7577f4e487b7100000000000000000000000000000000000000000000000000000000600052602160045260246000fd5b8160080160009054906101000a900460ff166003811115610ff1577f4e487b7100000000000000000000000000000000000000000000000000000000600052602160045260246000fd5b14611031576040517f08c379a000000000000000000000000000000000000000000000000000000000815260040161102890612cb2565b60405180910390fd5b80600501543414611077576040517f08c379a000000000000000000000000000000000000000000000000000000000815260040161106e90612d72565b60405180910390fd5b60018160080160006101000a81548160ff021916908360038111156110c5577f4e487b7100000000000000000000000000000000000000000000000000000000600052602160045260246000fd5b02179055503373ffffffffffffffffffffffffffffffffffffffff167f02a1e2b102b2abfec4db5b5403f79fe06aa66cfef8cf4fc1017e47655c9c822534836007014260405161111793929190612e8f565b60405180910390a28060010160009054906101000a900473ffffffffffffffffffffffffffffffffffffffff1673ffffffffffffffffffffffffffffffffffffffff168160000160009054906101000a900473ffffffffffffffffffffffffffffffffffffffff1673ffffffffffffffffffffffffffffffffffffffff167fe6a2416df4719182da0352491ac0e761483a33e5abae5e640f7d843690c4a62783600701846002015485600301546040516111d393929190612c54565b60405180910390a35050565b600081815481106111ef57600080fd5b90600052602060002090600902016000915090508060000160009054906101000a900473ffffffffffffffffffffffffffffffffffffffff16908060010160009054906101000a900473ffffffffffffffffffffffffffffffffffffffff169080600201549080600301549080600401805461126a906130cb565b80601f0160208091040260200160405190810160405280929190818152602001828054611296906130cb565b80156112e35780601f106112b8576101008083540402835291602001916112e3565b820191906000526020600020905b8154815290600101906020018083116112c657829003601f168201915b505050505090806005015490806006015490806007018054611304906130cb565b80601f0160208091040260200160405190810160405280929190818152602001828054611330906130cb565b801561137d5780601f106113525761010080835404028352916020019161137d565b820191906000526020600020905b81548152906001019060200180831161136057829003601f168201915b5050505050908060080160009054906101000a900460ff16905089565b80600081815481106113d5577f4e487b7100000000000000000000000000000000000000000000000000000000600052603260045260246000fd5b906000526020600020906009020160000160009054906101000a900473ffffffffffffffffffffffffffffffffffffffff1673ffffffffffffffffffffffffffffffffffffffff163373ffffffffffffffffffffffffffffffffffffffff1614611474576040517f08c379a000000000000000000000000000000000000000000000000000000000815260040161146b90612cd2565b60405180910390fd5b816003808111156114ae577f4e487b7100000000000000000000000000000000000000000000000000000000600052602160045260246000fd5b600082815481106114e8577f4e487b7100000000000000000000000000000000000000000000000000000000600052603260045260246000fd5b906000526020600020906009020160080160009054906101000a900460ff16600381111561153f577f4e487b7100000000000000000000000000000000000000000000000000000000600052602160045260246000fd5b1415611580576040517f08c379a000000000000000000000000000000000000000000000000000000000815260040161157790612d32565b60405180910390fd5b60008084815481106115bb577f4e487b7100000000000000000000000000000000000000000000000000000000600052603260045260246000fd5b9060005260206000209060090201905080600301544211611611576040517f08c379a000000000000000000000000000000000000000000000000000000000815260040161160890612dd2565b60405180910390fd5b60038160080160006101000a81548160ff0219169083600381111561165f577f4e487b7100000000000000000000000000000000000000000000000000000000600052602160045260246000fd5b02179055506002600381111561169e577f4e487b7100000000000000000000000000000000000000000000000000000000600052602160045260246000fd5b8160080160009054906101000a900460ff1660038111156116e8577f4e487b7100000000000000000000000000000000000000000000000000000000600052602160045260246000fd5b14156117db578060010160009054906101000a900473ffffffffffffffffffffffffffffffffffffffff1673ffffffffffffffffffffffffffffffffffffffff166108fc82600501549081150290604051600060405180830381858888f1935050505015801561175c573d6000803e3d6000fd5b508060010160009054906101000a900473ffffffffffffffffffffffffffffffffffffffff1673ffffffffffffffffffffffffffffffffffffffff167fdb9c314fac9ff457de5c842044f1bc3ef7c670f7c60a64484bc75831c4270cef826005015483600701426040516117d293929190612e8f565b60405180910390a25b8060010160009054906101000a900473ffffffffffffffffffffffffffffffffffffffff1673ffffffffffffffffffffffffffffffffffffffff168160000160009054906101000a900473ffffffffffffffffffffffffffffffffffffffff1673ffffffffffffffffffffffffffffffffffffffff167fe333e1780e73b76312b3e4dcdaa176843638fa200ae744da417bf68b1828a4448360070142604051611885929190612c24565b60405180910390a350505050565b81600081815481106118ce577f4e487b7100000000000000000000000000000000000000000000000000000000600052603260045260246000fd5b906000526020600020906009020160000160009054906101000a900473ffffffffffffffffffffffffffffffffffffffff1673ffffffffffffffffffffffffffffffffffffffff163373ffffffffffffffffffffffffffffffffffffffff161461196d576040517f08c379a000000000000000000000000000000000000000000000000000000000815260040161196490612cd2565b60405180910390fd5b826003808111156119a7577f4e487b7100000000000000000000000000000000000000000000000000000000600052602160045260246000fd5b600082815481106119e1577f4e487b7100000000000000000000000000000000000000000000000000000000600052603260045260246000fd5b906000526020600020906009020160080160009054906101000a900460ff166003811115611a38577f4e487b7100000000000000000000000000000000000000000000000000000000600052602160045260246000fd5b1415611a79576040517f08c379a0000000000000000000000000000000000000000000000000000000008152600401611a7090612d32565b60405180910390fd5b6000808581548110611ab4577f4e487b7100000000000000000000000000000000000000000000000000000000600052603260045260246000fd5b9060005260206000209060090201905060008411611b07576040517f08c379a0000000000000000000000000000000000000000000000000000000008152600401611afe90612e12565b60405180910390fd5b8060000160009054906101000a900473ffffffffffffffffffffffffffffffffffffffff1673ffffffffffffffffffffffffffffffffffffffff166108fc859081150290604051600060405180830381858888f19350505050158015611b71573d6000803e3d6000fd5b508060010160009054906101000a900473ffffffffffffffffffffffffffffffffffffffff1673ffffffffffffffffffffffffffffffffffffffff167fcf40cadcd86c14cb7e696a86578255719f67bc54bf991d45d267ee6e01467c198542604051611bde929190612ecd565b60405180910390a25050505050565b8060008181548110611c28577f4e487b7100000000000000000000000000000000000000000000000000000000600052603260045260246000fd5b906000526020600020906009020160010160009054906101000a900473ffffffffffffffffffffffffffffffffffffffff1673ffffffffffffffffffffffffffffffffffffffff163373ffffffffffffffffffffffffffffffffffffffff1614611cc7576040517f08c379a0000000000000000000000000000000000000000000000000000000008152600401611cbe90612d12565b60405180910390fd5b8160008181548110611d02577f4e487b7100000000000000000000000000000000000000000000000000000000600052603260045260246000fd5b9060005260206000209060090201600201544210158015611d6e575060008181548110611d58577f4e487b7100000000000000000000000000000000000000000000000000000000600052603260045260246000fd5b9060005260206000209060090201600301544211155b611dad576040517f08c379a0000000000000000000000000000000000000000000000000000000008152600401611da490612df2565b60405180910390fd5b6000805490508310611df4576040517f08c379a0000000000000000000000000000000000000000000000000000000008152600401611deb90612d52565b60405180910390fd5b6000808481548110611e2f577f4e487b7100000000000000000000000000000000000000000000000000000000600052603260045260246000fd5b9060005260206000209060090201905080600601543414611e85576040517f08c379a0000000000000000000000000000000000000000000000000000000008152600401611e7c90612cf2565b60405180910390fd5b60016003811115611ebf577f4e487b7100000000000000000000000000000000000000000000000000000000600052602160045260246000fd5b8160080160009054906101000a900460ff166003811115611f09577f4e487b7100000000000000000000000000000000000000000000000000000000600052602160045260246000fd5b14611f49576040517f08c379a0000000000000000000000000000000000000000000000000000000008152600401611f4090612d92565b60405180910390fd5b60028160080160006101000a81548160ff02191690836003811115611f97577f4e487b7100000000000000000000000000000000000000000000000000000000600052602160045260246000fd5b02179055508060000160009054906101000a900473ffffffffffffffffffffffffffffffffffffffff1673ffffffffffffffffffffffffffffffffffffffff166108fc349081150290604051600060405180830381858888f19350505050158015612006573d6000803e3d6000fd5b508060000160009054906101000a900473ffffffffffffffffffffffffffffffffffffffff1673ffffffffffffffffffffffffffffffffffffffff163373ffffffffffffffffffffffffffffffffffffffff167f53d8f6089d902f87f506cbe2fd7aa28135292f98afb226e8374c5291077b425234846007014260405161208f93929190612e8f565b60405180910390a350505050565b62093a8081565b604051806101200160405280600073ffffffffffffffffffffffffffffffffffffffff168152602001600073ffffffffffffffffffffffffffffffffffffffff1681526020016000815260200160008152602001606081526020016000815260200160008152602001606081526020016000600381111561214e577f4e487b7100000000000000000000000000000000000000000000000000000000600052602160045260246000fd5b81525090565b828054612160906130cb565b90600052602060002090601f01602090048101928261218257600085556121c9565b82601f1061219b57805160ff19168380011785556121c9565b828001600101855582156121c9579182015b828111156121c85782518255916020019190600101906121ad565b5b5090506121d691906121da565b5090565b5b808211156121f35760008160009055506001016121db565b5090565b600061220a61220584612f27565b612ef6565b90508281526020810184848401111561222257600080fd5b61222d848285613089565b509392505050565b600081359050612244816131de565b92915050565b600082601f83011261225b57600080fd5b813561226b8482602086016121f7565b91505092915050565b600081359050612283816131f5565b92915050565b600080600080600080600060e0888a0312156122a457600080fd5b60006122b28a828b01612235565b97505060206122c38a828b01612274565b96505060406122d48a828b01612274565b955050606088013567ffffffffffffffff8111156122f157600080fd5b6122fd8a828b0161224a565b945050608061230e8a828b01612274565b93505060a088013567ffffffffffffffff81111561232b57600080fd5b6123378a828b0161224a565b92505060c06123488a828b01612274565b91505092959891949750929550565b60006020828403121561236957600080fd5b600061237784828501612274565b91505092915050565b6000806040838503121561239357600080fd5b60006123a185828601612274565b92505060206123b285828601612274565b9150509250929050565b60006123c883836129b1565b905092915050565b6123d981613028565b82525050565b6123e881613028565b82525050565b60006123f982612f7c565b6124038185612f9f565b93508360208202850161241585612f57565b8060005b85811015612451578484038952815161243285826123bc565b945061243d83612f92565b925060208a01995050600181019050612419565b50829750879550505050505092915050565b61246c81613077565b82525050565b61247b81613077565b82525050565b600061248c82612f87565b6124968185612fb0565b93506124a6818560208601613098565b6124af816131b9565b840191505092915050565b60006124c582612f87565b6124cf8185612fc1565b93506124df818560208601613098565b6124e8816131b9565b840191505092915050565b60008154612500816130cb565b61250a8186612fc1565b9450600182166000811461252557600181146125375761256a565b60ff198316865260208601935061256a565b61254085612f67565b60005b8381101561256257815481890152600182019150602081019050612543565b808801955050505b50505092915050565b6000612580601483612fc1565b91507f496e76616c69642072656e74616c2064617465730000000000000000000000006000830152602082019050919050565b60006125c0601883612fc1565b91507f436f6e747261637420616c7265616479206372656174656400000000000000006000830152602082019050919050565b6000612600602683612fc1565b91507f4f6e6c7920746865206f776e65722063616e20706572666f726d20746869732060008301527f616374696f6e00000000000000000000000000000000000000000000000000006020830152604082019050919050565b6000612666601583612fc1565b91507f496e636f72726563742072656e7420616d6f756e7400000000000000000000006000830152602082019050919050565b60006126a6602783612fc1565b91507f4f6e6c79207468652072656e7465722063616e20706572666f726d207468697360008301527f20616374696f6e000000000000000000000000000000000000000000000000006020830152604082019050919050565b600061270c601083612fc1565b91507f52656e74616c2068617320656e646564000000000000000000000000000000006000830152602082019050919050565b600061274c601483612fc1565b91507f496e76616c69642072656e74616c20696e6465780000000000000000000000006000830152602082019050919050565b600061278c601883612fc1565b91507f496e636f7272656374206465706f73697420616d6f756e7400000000000000006000830152602082019050919050565b60006127cc601083612fc1565b91507f4465706f736974206e6f74206d616465000000000000000000000000000000006000830152602082019050919050565b600061280c602283612fc1565b91507f4f6e6c79207468652072656e7465722063616e206d616b652061206465706f7360008301527f69740000000000000000000000000000000000000000000000000000000000006020830152604082019050919050565b6000612872602783612fc1565b91507f43616e6e6f7420656e6420636f6e7472616374206265666f726520746865206560008301527f6e642064617465000000000000000000000000000000000000000000000000006020830152604082019050919050565b60006128d8601883612fc1565b91507f4e6f742077697468696e2072656e74616c20706572696f6400000000000000006000830152602082019050919050565b6000612918602883612fc1565b91507f50656e616c747920616d6f756e74206d7573742062652067726561746572207460008301527f68616e207a65726f0000000000000000000000000000000000000000000000006020830152604082019050919050565b600061297e601f83612fc1565b91507f4372656174696f6e20706572696f64206e6f74207965742065787069726564006000830152602082019050919050565b6000610120830160008301516129ca60008601826123d0565b5060208301516129dd60208601826123d0565b5060408301516129f06040860182612b49565b506060830151612a036060860182612b49565b5060808301518482036080860152612a1b8282612481565b91505060a0830151612a3060a0860182612b49565b5060c0830151612a4360c0860182612b49565b5060e083015184820360e0860152612a5b8282612481565b915050610100830151612a72610100860182612463565b508091505092915050565b600061012083016000830151612a9660008601826123d0565b506020830151612aa960208601826123d0565b506040830151612abc6040860182612b49565b506060830151612acf6060860182612b49565b5060808301518482036080860152612ae78282612481565b91505060a0830151612afc60a0860182612b49565b5060c0830151612b0f60c0860182612b49565b5060e083015184820360e0860152612b278282612481565b915050610100830151612b3e610100860182612463565b508091505092915050565b612b528161306d565b82525050565b612b618161306d565b82525050565b600061012082019050612b7d600083018c6123df565b612b8a602083018b6123df565b612b97604083018a612b58565b612ba46060830189612b58565b8181036080830152612bb681886124ba565b9050612bc560a0830187612b58565b612bd260c0830186612b58565b81810360e0830152612be481856124ba565b9050612bf4610100830184612472565b9a9950505050505050505050565b60006020820190508181036000830152612c1c81846123ee565b905092915050565b60006040820190508181036000830152612c3e81856124f3565b9050612c4d6020830184612b58565b9392505050565b60006060820190508181036000830152612c6e81866124f3565b9050612c7d6020830185612b58565b612c8a6040830184612b58565b949350505050565b60006020820190508181036000830152612cab81612573565b9050919050565b60006020820190508181036000830152612ccb816125b3565b9050919050565b60006020820190508181036000830152612ceb816125f3565b9050919050565b60006020820190508181036000830152612d0b81612659565b9050919050565b60006020820190508181036000830152612d2b81612699565b9050919050565b60006020820190508181036000830152612d4b816126ff565b9050919050565b60006020820190508181036000830152612d6b8161273f565b9050919050565b60006020820190508181036000830152612d8b8161277f565b9050919050565b60006020820190508181036000830152612dab816127bf565b9050919050565b60006020820190508181036000830152612dcb816127ff565b9050919050565b60006020820190508181036000830152612deb81612865565b9050919050565b60006020820190508181036000830152612e0b816128cb565b9050919050565b60006020820190508181036000830152612e2b8161290b565b9050919050565b60006020820190508181036000830152612e4b81612971565b9050919050565b60006020820190508181036000830152612e6c8184612a7d565b905092915050565b6000602082019050612e896000830184612b58565b92915050565b6000606082019050612ea46000830186612b58565b8181036020830152612eb681856124f3565b9050612ec56040830184612b58565b949350505050565b6000604082019050612ee26000830185612b58565b612eef6020830184612b58565b9392505050565b6000604051905081810181811067ffffffffffffffff82111715612f1d57612f1c61318a565b5b8060405250919050565b600067ffffffffffffffff821115612f4257612f4161318a565b5b601f19601f8301169050602081019050919050565b6000819050602082019050919050565b60008190508160005260206000209050919050565b600081519050919050565b600081519050919050565b6000602082019050919050565b600082825260208201905092915050565b600082825260208201905092915050565b600082825260208201905092915050565b6000612fdd8261306d565b9150612fe88361306d565b9250827fffffffffffffffffffffffffffffffffffffffffffffffffffffffffffffffff0382111561301d5761301c6130fd565b5b828201905092915050565b60006130338261304d565b9050919050565b6000819050613048826131ca565b919050565b600073ffffffffffffffffffffffffffffffffffffffff82169050919050565b6000819050919050565b60006130828261303a565b9050919050565b82818337600083830152505050565b60005b838110156130b657808201518184015260208101905061309b565b838111156130c5576000848401525b50505050565b600060028204905060018216806130e357607f821691505b602082108114156130f7576130f661315b565b5b50919050565b7f4e487b7100000000000000000000000000000000000000000000000000000000600052601160045260246000fd5b7f4e487b7100000000000000000000000000000000000000000000000000000000600052602160045260246000fd5b7f4e487b7100000000000000000000000000000000000000000000000000000000600052602260045260246000fd5b7f4e487b7100000000000000000000000000000000000000000000000000000000600052604160045260246000fd5b6000601f19601f8301169050919050565b600481106131db576131da61312c565b5b50565b6131e781613028565b81146131f257600080fd5b50565b6131fe8161306d565b811461320957600080fd5b5056fea264697066735822122044af0aa44b09ddf9ae6a631e7728a579a3759c635079d934957898205d15eb6564736f6c63430008000033",
  "immutableReferences": {},
  "source": "// SPDX-License-Identifier: MIT\r\npragma solidity ^0.8.0;\r\n\r\ncontract RentalContract {\r\n    enum RentalStatus { NotCreated, Deposited, Paid, Ended }\r\n\r\n    struct Rental {\r\n        address payable owner;\r\n        address payable renter;\r\n        uint startDate;\r\n        uint endDate;\r\n        string details;\r\n        uint depositAmount;\r\n        uint monthlyRent;\r\n        string propertyId;\r\n        RentalStatus status;\r\n    }\r\n\r\n    Rental[] public rentals;\r\n\r\n    uint public constant MAX_CREATION_PERIOD = 7 days;\r\n\r\n    event ContractCreated(address indexed owner, address indexed renter, string propertyId, uint startDate, uint endDate);\r\n    event RentPaid(address indexed renter, address indexed owner, uint amount, string propertyId, uint timestamp);\r\n    event DepositReturned(address indexed renter, uint amount, string propertyId, uint timestamp);\r\n    event PenaltyApplied(address indexed renter, uint amount, uint timestamp);\r\n    event ContractEnded(address indexed owner, address indexed renter, string propertyId, uint timestamp);\r\n    event DepositMade(address indexed renter, uint amount, string propertyId, uint timestamp);\r\n    event DepositCancelled(address indexed renter, uint amount, string propertyId, uint timestamp);\r\n\r\n    modifier onlyOwner(uint _rentalIndex) {\r\n        require(msg.sender == rentals[_rentalIndex].owner, \"Only the owner can perform this action\");\r\n        _;\r\n    }\r\n\r\n    modifier onlyRenter(uint _rentalIndex) {\r\n        require(msg.sender == rentals[_rentalIndex].renter, \"Only the renter can perform this action\");\r\n        _;\r\n    }\r\n\r\n    modifier inRentalPeriod(uint _rentalIndex) {\r\n        require(block.timestamp >= rentals[_rentalIndex].startDate && block.timestamp <= rentals[_rentalIndex].endDate, \"Not within rental period\");\r\n        _;\r\n    }\r\n\r\n    modifier rentalNotEnded(uint _rentalIndex) {\r\n        require(rentals[_rentalIndex].status != RentalStatus.Ended, \"Rental has ended\");\r\n        _;\r\n    }\r\n\r\n    function createContract(\r\n        address payable _renter,\r\n        uint _startDate,\r\n        uint _endDate,\r\n        string memory _details,\r\n        uint _monthlyRent,\r\n        string memory _propertyId,\r\n        uint _depositAmount\r\n    ) public {\r\n        require(_startDate < _endDate, \"Invalid rental dates\");\r\n\r\n        Rental memory newRental = Rental({\r\n            owner: payable(msg.sender),\r\n            renter: _renter,\r\n            startDate: _startDate,\r\n            endDate: _endDate,\r\n            details: _details,\r\n            depositAmount: _depositAmount,\r\n            monthlyRent: _monthlyRent,\r\n            propertyId: _propertyId,\r\n            status: RentalStatus.NotCreated\r\n        });\r\n\r\n        rentals.push(newRental);\r\n    }\r\n\r\n    function depositAndCreateContract(\r\n        uint _rentalIndex\r\n    ) public payable {\r\n        require(_rentalIndex < rentals.length, \"Invalid rental index\");\r\n        Rental storage rental = rentals[_rentalIndex];\r\n\r\n        require(msg.sender == rental.renter, \"Only the renter can make a deposit\");\r\n        require(rental.status == RentalStatus.NotCreated, \"Contract already created\");\r\n        require(msg.value == rental.depositAmount, \"Incorrect deposit amount\");\r\n\r\n        // Update status to Deposited\r\n        rental.status = RentalStatus.Deposited;\r\n\r\n        // Emit events\r\n        emit DepositMade(msg.sender, msg.value, rental.propertyId, block.timestamp);\r\n        emit ContractCreated(rental.owner, rental.renter, rental.propertyId, rental.startDate, rental.endDate);\r\n    }\r\n\r\n    function payRent(uint _rentalIndex) public payable onlyRenter(_rentalIndex) inRentalPeriod(_rentalIndex) {\r\n        require(_rentalIndex < rentals.length, \"Invalid rental index\");\r\n        Rental storage rental = rentals[_rentalIndex];\r\n\r\n        require(msg.value == rental.monthlyRent, \"Incorrect rent amount\");\r\n        require(rental.status == RentalStatus.Deposited, \"Deposit not made\");\r\n\r\n        rental.status = RentalStatus.Paid;\r\n        rental.owner.transfer(msg.value);\r\n\r\n        emit RentPaid(msg.sender, rental.owner, msg.value, rental.propertyId, block.timestamp);\r\n    }\r\n\r\n    function endContract(uint _rentalIndex) public onlyOwner(_rentalIndex) rentalNotEnded(_rentalIndex) {\r\n        Rental storage rental = rentals[_rentalIndex];\r\n        require(block.timestamp > rental.endDate, \"Cannot end contract before the end date\");\r\n\r\n        rental.status = RentalStatus.Ended;\r\n\r\n        if (rental.status == RentalStatus.Paid) {\r\n            rental.renter.transfer(rental.depositAmount);\r\n            emit DepositReturned(rental.renter, rental.depositAmount, rental.propertyId, block.timestamp);\r\n        }\r\n\r\n        emit ContractEnded(rental.owner, rental.renter, rental.propertyId, block.timestamp);\r\n    }\r\n\r\n    function applyPenalty(uint _rentalIndex, uint _penaltyAmount) public onlyOwner(_rentalIndex) rentalNotEnded(_rentalIndex) {\r\n        Rental storage rental = rentals[_rentalIndex];\r\n        require(_penaltyAmount > 0, \"Penalty amount must be greater than zero\");\r\n\r\n        rental.owner.transfer(_penaltyAmount);\r\n        emit PenaltyApplied(rental.renter, _penaltyAmount, block.timestamp);\r\n    }\r\n\r\n    function cancelDeposit(uint _rentalIndex) public onlyRenter(_rentalIndex) {\r\n        require(_rentalIndex < rentals.length, \"Invalid rental index\");\r\n        Rental storage rental = rentals[_rentalIndex];\r\n\r\n        require(rental.status == RentalStatus.Deposited, \"Deposit not made\");\r\n        require(block.timestamp > rental.startDate + MAX_CREATION_PERIOD, \"Creation period not yet expired\");\r\n\r\n        uint depositAmount = rental.depositAmount;\r\n        rental.depositAmount = 0; // To prevent re-entrancy attacks\r\n        rental.status = RentalStatus.NotCreated; // Reset status\r\n\r\n        payable(rental.renter).transfer(depositAmount);\r\n\r\n        emit DepositCancelled(rental.renter, depositAmount, rental.propertyId, block.timestamp);\r\n    }\r\n\r\n    function getRentalDetails(uint _rentalIndex) public view returns (Rental memory) {\r\n        return rentals[_rentalIndex];\r\n    }\r\n\r\n    function getAllRentals() public view returns (Rental[] memory) {\r\n        return rentals;\r\n    }\r\n}\r\n",
  "sourcePath": "E:\\kltn-backend\\contract-service\\contractRental\\contracts\\RentalContract.sol",
  "compiler": {
    "name": "solc",
    "version": "0.8.0+commit.c7dfd78e.Emscripten.clang"
  },
  "schemaVersion": "3.4.16",
  "updatedAt": "2024-08-15T16:29:22.432Z",
  "networkType": "ethereum",
  "devdoc": {
    "kind": "dev",
    "methods": {},
    "version": 1
  },
  "userdoc": {
    "kind": "user",
    "methods": {},
    "version": 1
  }
}